:1000000008C1000036C1000034C1000032C1000048
:1000100030C100002EC100002CC100002AC1000028
:1000200028C1000026C1000024C1000022C1000038
:1000300020C100001EC100001CC100001AC1000048
:1000400018C1000016C1000014C1000012C1000058
:100050003CC600000EC100000CC1000089C50000B4
:1000600008C10000AAC400007FC4000002C1000053
:1000700000C10000FEC00000FCC00000FAC000008B
:10008000F8C00000F6C00000F4C00000F2C000009C
:10009000F0C00000EEC00000ECC00000EAC00000AC
:1000A000E8C00000E6C00000E4C00000E2C00000BC
:1000B000E0C00000DEC00000DCC00000DAC00000CC
:1000C000D8C00000D6C00000D4C00000D2C00000DC
:1000D000D0C00000CEC00000CCC00000CAC00000EC
:1000E000C8C00000BD01C001AF01B301B701F701F5
:1000F000C401C801CE01D201D601DC01E001E40156
:10010000F701EA01EE01F2010000220025002800BB
:100110002B002E003100340002010000050108010F
:100120000B0105050505070508080808020202027B
:100130000A0A080804040404010101010101010183
:100140000303030303030303040707070C0C0C0C4E
:100150000C0C0C0C02020202060606060606060637
:100160000B0B0B0B0B0B0B0B0102102020080810C4
:100170002040102040800201020108040201010217
:1001800004081020408080402010080402018004F0
:10019000020180402010080402010804020101024B
:1001A0000408102040800102040810204080000054
:1001B0000A0B02090C0D0E080703040100000000E1
:1001C000000000000000000000000000000000002F
:1001D00000000000000000000000121110000000EC
:1001E000000000000000000000000000000000000F
:1001F0000000000000002100240027002A002D003C
:100200003000330001010000040107010A01650C00
:10021000BB0C11241FBECFEFD1E2DEBFCDBF00E08B
:100220000CBF12E0A0E0B2E0E4E7FDE100E00BBFAC
:1002300002C007900D92A436B107D9F723E0A4E6D7
:10024000B2E001C01D92A93BB207E1F711E0C8E09E
:10025000D1E000E006C021970109802FFE010E9435
:10026000BE0CC730D10780E00807A9F753D50C941E
:10027000A90EC6CECF92DF92EF92FF920F931F93FB
:10028000CF93DF936C017A018B01C0E0D0E0CE15F3
:10029000DF0589F0D8016D918D01D601ED91FC91BA
:1002A0000190F081E02DC6011995892B11F47E0192
:1002B00002C02196ECCFC701DF91CF911F910F9122
:1002C000FF90EF90DF90CF9008950E94F30DE2EB46
:1002D000F2E0A089B18982E08C93A485B5851C9257
:1002E000A685B78580E18C93108EA489B58986E0B8
:1002F0008C93A289B3898C9180618C93A289B389F4
:100300008C9188608C93A289B3898C9180688C933E
:100310000288F389E02D80818F7D8083089590E0AD
:10032000FC01E255FE4F4491FC01E859FE4F249137
:10033000FC01EE5DFE4F9491992309F467C04423BC
:1003400009F455C050E0FA013197E231F10508F0A7
:100350004EC08827EE58FF4F8F4F0C94BE0C8091F3
:1003600080008F7707C0809180008F7D03C08091CF
:100370008000877F809380003AC084B58F7702C069
:1003800084B58F7D84BD33C08091B0008F7703C06A
:100390008091B0008F7D8093B00029C08091900043
:1003A0008F7707C0809190008F7D03C0809190006F
:1003B000877F809390001BC08091A0008F7707C03B
:1003C0008091A0008F7D03C08091A000877F8093E3
:1003D000A0000DC0809120018F7707C0809120017F
:1003E0008F7D03C080912001877F80932001E92FBA
:1003F000F0E0EE0FFF1FE85FFE4FA591B4918FB7BD
:10040000F894EC9120952E232C938FBF08950F9391
:100410001F93CF93DF93CDB7DEB729970FB6F8942C
:10042000DEBF0FBECDBF3BD30091A5031091A60345
:100430002091A7033091A803DC01CB01801B910B15
:10044000A20BB30B8C329140A105B10560F3F89477
:1004500080919B0390919C039A838983E0919F03F1
:10046000F091A003DF011196808189879091970315
:10047000E091A903F091AA038091AB03992309F4B9
:100480002EC09081982B98879081809589238F83A7
:100490008F818C8388E08B8358856F8149853B8170
:1004A0002C8189819A81508347FD252F3A9520839D
:1004B000262F39F0441F00C000006083000000C0F8
:1004C000F2CF38E04D9160830000019761F7F0931F
:1004D000AA03E093A90349873B832C8338C090810A
:1004E000982B98879081809589238F838F818E8325
:1004F00088E08D8358856F8149853D812E81898172
:100500009A81508347FD252F00C000C0208300C082
:1005100000C000C000C000C060830000262F3A95D4
:1005200041F0441F000000C000C000C000C000C077
:10053000E8CF38E04D9100C0608300C0019709F713
:10054000F093AA03E093A90349873D832E839A83FE
:1005500089837894A4D26093A5037093A6038093B3
:10056000A7039093A80329960FB6F894DEBF0FBE99
:10057000CDBFDF91CF911F910F9108958F929F92E0
:10058000AF92BF92CF92DF92EF92FF924B01AA24DB
:10059000BB24E82DC52ED62EE72EFF24FC2D342FAC
:1005A00020919E03222361F0829E40011124E92DB7
:1005B000C29E60011124FD2D429FD00111243B2FCA
:1005C000F090A403E090A103A0919F03B091A00339
:1005D000FE1008C0AC01440F551F840F951F8A0FF1
:1005E0009B1F14C0880F991F880F991F8A0F9B1F8C
:1005F000472F552766277727DC01AF0DB11D222332
:1006000021F0429FA0011124452F4C932091A1037A
:10061000DC01A20FB11DEC932091A203DC01A20F1B
:10062000B11DFC932091A303FC01E20FF11D308367
:10063000FF90EF90DF90CF90BF90AF909F908F9002
:1006400008954091B0025091B1022091AC023091D6
:10065000AD028091AE029091AF026FE070E0421B5C
:10066000530B280F391F8F3F91051CF488539F4F60
:1006700002C0885C91096150710989F79093AF02BB
:100680008093AE025093B1024093B0023093AD021A
:100690002093AC0208956115710579F0FB0101907A
:1006A0000020E9F73197AF01461B570BDC01ED91B4
:1006B000FC910280F381E02D199480E090E0089590
:1006C0004F925F926F927F92EF92FF920F931F93E0
:1006D000CF93DF93CDB7DEB7A1970FB6F894DEBF07
:1006E0000FBECDBF7C01FA01CB0119A2223008F464
:1006F0002AE08E010F5D1F4F422E512C612C712C70
:10070000BF01A30192010E944C0EF901CA010150E0
:1007100011096A3014F4605D01C0695CD8016C9302
:10072000232B242B252B61F7B801C701B4DFA19639
:100730000FB6F894DEBF0FBECDBFDF91CF911F91F2
:100740000F91FF90EF907F906F905F904F90089582
:10075000CF93DF93AC0160E070E02AE082EB92E09F
:10076000AFDFEC0169E272E082EB92E094DF8C0F84
:100770009D1FDF91CF9108958ECFFC01918D828DC9
:10078000981761F0828DDF01A80FB11D5D968C91E5
:10079000928D9F5F9F73928F90E008958FEF9FEFF0
:1007A0000895FC01918D828D981731F0828DE80FAC
:1007B000F11D858D90E008958FEF9FEF0895FC0166
:1007C000918D228D892F90E0805C9F4F821B910933
:1007D0008F739927089582EB92E0F1DF21E0892B56
:1007E00009F420E0822F0895FC01848DDF01A80F19
:1007F000B11DA35ABF4F2C91848D90E001968F7349
:100800009927848FA689B7892C93A089B1898C9167
:1008100080648C93938D848D981306C00288F3892D
:10082000E02D80818F7D80830895EF92FF920F935A
:100830001F93CF93DF93EC0181E0888F9B8D8C8D8C
:10084000981305C0E889F989808185FD23C0F62EBB
:100850000B8D10E00F5F1F4F0F731127E02E8C8D53
:10086000E8120BC00FB607FCFACFE889F98980813E
:1008700085FFF5CFCE01B8DFF2CF8B8DFE01E80FFB
:10088000F11DE35AFF4FF0820B8FEA89FB898081CB
:10089000806207C0EE89FF896083E889F9898081D9
:1008A0008064808381E090E0DF91CF911F910F9170
:1008B000FF90EF900895CF93DF93EC01888D88230C
:1008C000C1F0EA89FB89808185FD05C0A889B989C5
:1008D0008C9186FD0EC00FB607FCF5CF808185FF99
:1008E000F2CFA889B9898C9185FFEDCFCE017CDF4D
:1008F000E8CFDF91CF91089580E090E0892B19F047
:100900006ADF811125C080E090E0892B41F080E012
:1009100090E0892B21F00E94000081111CC080E032
:1009200090E0892B41F080E090E0892B21F00E943B
:100930000000811113C080E090E0892BA1F080E0DD
:1009400090E0892B81F00E94000081110AC0089577
:100950000E940000D8CF0E940000E1CF0E9400005A
:10096000EACF0C94000008951F920F920FB60F92D9
:1009700011240BB60F922F933F934F935F936F9376
:100980007F938F939F93AF93BF93EF93FF9382EBEC
:1009900092E02ADFFF91EF91BF91AF919F918F91EC
:1009A0007F916F915F914F913F912F910F900BBE6F
:1009B0000F900FBE0F901F9018951F920F920FB6B9
:1009C0000F9211240BB60F922F938F939F93EF9357
:1009D000FF93E091C202F091C3028081E091C802CE
:1009E000F091C90282FD12C090818091CB028F5F8D
:1009F0008F732091CC02821751F0E091CB02F0E08E
:100A0000EE54FD4F958F8093CB0201C08081FF9102
:100A1000EF919F918F912F910F900BBE0F900FBE72
:100A20000F901F901895CF93DF9390E0FC01E85949
:100A3000FE4F2491FC01EE5DFE4F8491882361F10D
:100A400090E0880F991FFC01EC50FE4FC591D491A6
:100A5000FC01E85FFE4FA591B491611109C09FB7F9
:100A6000F8948881209582238883EC912E230BC0F3
:100A7000623061F49FB7F8943881822F8095832388
:100A80008883EC912E2B2C939FBF06C08FB7F894D0
:100A9000E8812E2B28838FBFDF91CF9108953FB738
:100AA000F8948091B1039091B203A091B303B091F7
:100AB000B40326B5A89B05C02F3F19F00196A11DD0
:100AC000B11D3FBFBA2FA92F982F8827820F911DE4
:100AD000A11DB11DBC01CD0142E0660F771F881F2B
:100AE000991F4A95D1F708958F929F92AF92BF9226
:100AF000CF92DF92EF92FF926B017C01D0DF4B012E
:100B00005C01C114D104E104F104E9F0C8DFDC01A7
:100B1000CB0188199909AA09BB09883E9340A10510
:100B2000B10578F321E0C21AD108E108F10888EE96
:100B3000880E83E0981EA11CB11CC114D104E104ED
:100B4000F10421F7DECFFF90EF90DF90CF90BF90C0
:100B5000AF909F908F9008952FB7F8946091AD0358
:100B60007091AE038091AF039091B0032FBF0895B1
:100B70001F920F920FB60F9211242F933F938F93D2
:100B80009F93AF93BF938091AD039091AE03A091DB
:100B9000AF03B091B0033091AC0323E0230F2D37A6
:100BA00020F40196A11DB11D05C026E8230F029671
:100BB000A11DB11D2093AC038093AD039093AE03B0
:100BC000A093AF03B093B0038091B1039091B203AF
:100BD000A091B303B091B4030196A11DB11D809300
:100BE000B1039093B203A093B303B093B403BF9146
:100BF000AF919F918F913F912F910F900FBE0F90CA
:100C00001F901895CF93DF93EC0188859985009705
:100C100009F051D78E8187FD04C060E0DF91CF914C
:100C200002CFDF91CF910895FC01942F4091990359
:100C300050919A03E417F50750F4422F392F262FCD
:100C4000CF0150E060E070E0532B622B97DC809185
:100C50009F039091A003892B09F0D9CB0895CF92DF
:100C6000DF92EF92FF920F931F932091990330919F
:100C70009A0382179307A8F4062F019510E020E04D
:100C800030E0CC24D02EE12EF22EB8015527442797
:100C90004C295D296E297F29402B512B622B732B08
:100CA0006DDC80919F039091A003892B39F01F91F7
:100CB0000F91FF90EF90DF90CF90A9CB1F910F91F4
:100CC000FF90EF90DF90CF9008951F920F920FB694
:100CD0000F9211248F939F93AF93BF9380916402DF
:100CE00090916502A0916602B09167020196A11DE4
:100CF000B11D8093640290936502A0936602B09345
:100D00006702BF91AF919F918F910F900FBE0F908F
:100D10001F901895CF93DF93CDB7DEB769970FB6C5
:100D2000F894DEBF0FBECDBF789484B5826084BDD9
:100D300084B5816084BD85B5826085BD85B58160DF
:100D400085BD80916E00816080936E00109281005D
:100D50008091810082608093810080918100816018
:100D600080938100809180008160809380008091D9
:100D7000B10084608093B1008091B0008160809365
:100D8000B0008091910082608093910080919100E9
:100D900081608093910080919000816080939000A9
:100DA0008091A10082608093A1008091A100816068
:100DB0008093A1008091A00081608093A000809129
:100DC00021018260809321018091210181608093C3
:100DD00021018091200181608093200180917A001F
:100DE000846080937A0080917A00826080937A0098
:100DF00080917A00816080937A0080917A00806887
:100E000080937A001092C100109293031092940381
:100E10001092950310929603109251031092520370
:100E2000109253031092540397DE6B017C014B0127
:100E30005C0128EB820E2BE0921EA11CB11C8CDE03
:100E40006C157D058E059F0528F086169706A80669
:100E5000B906A8F782EB92E09093920380939103F6
:100E600036DA7ADE60935103709352038093530312
:100E7000909354036AE172E0809191039091920300
:100E80007BDC6ADE6B017C014B015C013AE0830E86
:100E9000911CA11CB11C60DE6C157D058E059F05A3
:100EA00028F086169706A806B906A8F781E0809371
:100EB00065030DDA81B18FEF81B980B38F6080BB9C
:100EC0009A9A8091010183608093010180910701CA
:100ED00081608093070180910A01866080930A01F6
:100EE00080910B018D7F80930B018998809108017F
:100EF0008E7F8093080112981598A29880917B00AC
:100F0000877F80937B0080E480937C0080917A00CF
:100F1000806480937A0080917A0086FDFCCF609196
:100F200078008091790070E0782B072E000C880BF8
:100F3000990B611571058105910509F0A4D61092F0
:100F400080001092810010928200F89480916F00CE
:100F5000816080936F0078941A8218861F86188AA1
:100F6000198A1A8A81E08E878B871C8692E09D877A
:100F700089838FE690E09E838D8308D59A87898741
:100F8000009751F02FE6DC011D922A95E9F785E2E2
:100F900090E09C838B8304C01E821D821C821B8276
:100FA00084E28F838A81882329F061E084E23BDD3B
:100FB00084E2B5D9E6E4F1E0E491F0E0EE0FFF1F42
:100FC000E85FFE4F859194919C8B8B8BECE8F1E070
:100FD000E491ED8B85E1FE013196A7E9B3E0019044
:100FE0000D928A95E1F7CE0101960CDE80919D036A
:100FF00087FD05C061E017DD80919D0390D981E0F8
:10100000809398031EDB00E010E061E070E0C8010F
:1010100026DE2091B0023091B1024091AE02509193
:10102000AF026091AC027091AD02C801FDDD62E3D8
:1010300070E080E090E058DD0F5F1F4F093111052F
:1010400021F700E010E060E070E0C80108DE62E334
:1010500070E080E090E048DD0F5F1F4F0831110520
:1010600091F700E010E061E070E0C801F8DD20E0F9
:1010700030E040E050E06FEF70E0C801D5DD0F5F79
:101080001F4F0931110579F76CEB72E080E090E0B9
:101090002BDD00E010E060E070E0C801E0DD0F5FF4
:1010A0001F4F09311105B9F76CEB72E080E090E059
:1010B0001BDD06E010E061E070E0C801D0DD20E05B
:1010C00030E04FEF50E060E070E0C801ADDD0F5F51
:1010D0001F4F0231110579F76CEB72E080E090E070
:1010E00003DD06E010E060E070E0C801B8DD0F5FEE
:1010F0001F4F02311105B9F76CEB72E080E090E010
:10110000F3DC00E010E07801B2E1EB0EF11C61E0ED
:1011100070E0C701A4DD61E070E0C801A0DD2FEF41
:1011200030E040E050E060E070E0C7017DDD2FEF8F
:1011300030E040E050E060E070E0C80175DD0F5F36
:101140001F4F06301105F9F66CEB72E080E090E07D
:10115000CBDC00E010E060E070E0C80142967FDD8B
:1011600060E070E0C8017BDD0F5F1F4F0C301105A0
:1011700091F76CEB72E080E090E0B6DC0CE010E000
:1011800061E070E0C8016BDD20E030E04FEF50E03F
:101190006FEF70E0C80148DD0F5F1F4F0831110588
:1011A00079F76CEB72E080E090E09EDC0CE010E000
:1011B00060E070E0C80153DD0F5F1F4F083111057B
:1011C000B9F76CEB72E080E090E08EDC00E010E0BC
:1011D00061E070E0C80143DD20E030E040E850E02D
:1011E0006FEF70E0C80120DD0F5F1F4F0C3011055D
:1011F00079F76CEB72E080E090E076DC00E010E0E4
:1012000060E070E0C8012BDD0F5F1F4F0C3011054F
:10121000B9F76CEB72E080E090E066DCEEE6F2E0BD
:101220002E2E82E38E0F11928E13FDCF0BEE1AE05D
:1012300090E4492E92E4592E9FE0692E712C28EEFD
:10124000822E23E0922EA12CB12C86DC672B682BFA
:10125000692B39F481DC623071058105910508F450
:101260000BC17ADC6093A4027093A5028093A6025E
:101270009093A702C090A002D090A102E090A20299
:10128000F090A3026C157D058E059F0540F46093D8
:10129000A0027093A1028093A2029093A302C09037
:1012A000A002D090A102E090A202F090A3029B01C4
:1012B000AC012C193D094E095F0969017A013AEF29
:1012C000C316D104E104F10408F4D6C06093A0026F
:1012D0007093A1028093A2029093A30284EF91E005
:1012E000A0E0B0E080935D0390935E03A0935F0362
:1012F000B093600310926103109262031092630333
:10130000109264038091550390915603A091570366
:10131000B09158038093590390935A03A0935B03B1
:10132000B0935C0319DC609355037093560380936C
:1013300057039093580310DC60935103709352034A
:10134000809353039093540307DC6B017C016CE2A0
:1013500072E080919103909192030EDA2AE041E0CD
:1013600050E060E070E08091910390919203A8D9E1
:1013700063E372E08091910390919203FDD92AE09A
:10138000B701A601809191039091920399D965E3E9
:1013900072E08091910390919203EED98091550370
:1013A00090915603A0915703B0915803B701A6013D
:1013B000481B590B6A0B7B0B2AE08091910390919B
:1013C00092037ED965E372E080919103909192033C
:1013D000D3D94091550350915603609157037091B2
:1013E00058038091590390915A03A0915B03B091E7
:1013F0005C03481B590B6A0B7B0B2AE0809191031D
:10140000909192035DD967E372E08091910390918E
:101410009203B2D9A1DBAB01BC012AE08091910318
:10142000909192034DD9E0909103F090920369E37B
:1014300072E0C70130D969E272E0C7012CD98CDBB8
:101440006B017C019B01AC012E5F3F4F4F4F5F4F03
:101450002E8B3F8B488F598F7FDB6C157D058E055A
:101460009F0508F027C278DB6093550370935603FD
:10147000809357039093580382EB92E0A0D91816FB
:1014800019060CF015C210926402109265021092B7
:10149000660210926702109285001092840031E07B
:1014A00030938100312CE32CF12C82EB92E065D952
:1014B000D701A259BD4F8C93873231F4F701E3591C
:1014C000FD4F90819C938083339461E070E080E0D5
:1014D00090E00ADB82EB92E072D9181619061CF331
:1014E00090E0931508F005C1E92FF0E0E259FD4FB7
:1014F00080818634B9F04CF4823419F1843409F4D3
:1015000069C0873209F0F3C074C0823509F438C06D
:10151000853509F444C08C3409F0E9C0109824E6FC
:1015200030E022C0169824E630E0179AF80131978F
:10153000F1F71798F8013197F1F721503109A9F720
:10154000D6C080910B018B7F80930B0124E630E0A5
:10155000889AF8013197F1F78898F8013197F1F7F7
:1015600021503109A9F7C3C0119AF8013197F1F759
:101570001198F8013197F1F721503109A9F7B7C057
:10158000139824E630E0149AF8013197F1F7149893
:10159000F8013197F1F721503109A9F7A8C08091DE
:1015A00002018D7F8093020124E630E080910201E8
:1015B000816080930201F8013197F1F78091020177
:1015C0008E7F80930201F8013197F1F721503109A4
:1015D00069F78DC08A9824E630E08B9AF80131973C
:1015E000F1F78B98F8013197F1F721503109A9F7FC
:1015F0007EC081818634B9F04CF4823419F1843490
:1016000009F074C08A9A24E630E065C0823509F496
:1016100038C0853509F444C08C3409F067C0109A8D
:1016200024E630E022C0169A24E630E0179AF8014A
:101630003197F1F71798F8013197F1F721503109F7
:10164000A9F754C080910B01846080930B0124E6BC
:1016500030E0889AF8013197F1F78898F8013197CE
:10166000F1F721503109A9F741C0119AF8013197DA
:10167000F1F71198F8013197F1F721503109A9F7E5
:1016800035C0139A24E630E0149AF8013197F1F747
:101690001498F8013197F1F721503109A9F726C0C4
:1016A0008091020182608093020124E630E0809103
:1016B0000201816080930201F8013197F1F7809176
:1016C00002018E7F80930201F8013197F1F72150DA
:1016D000310969F70BC08B9AF8013197F1F78B98B4
:1016E000F8013197F1F721503109A9F79F5F9F5F0A
:1016F000F8CE1092810080918500C0906402D09055
:101700006502E0906602F09067028CE0CC0CDD1C74
:10171000EE1CFF1C8A95D1F7C0926402D09265023C
:10172000E0926602F092670248EEC41643E0D406E7
:10173000E104F10448F410926902109268021092D8
:101740006B0210926A0218C0D701C601885E9340EE
:10175000A109B10988359E43AF40B10590F4C70196
:10176000B601A501940198D230936B0220936A02CE
:10177000709369026093680210926D0210926C027D
:1017800019C0C701B601A301920186D230936D0240
:1017900020936C02A50194017FD230936B022093B9
:1017A0006A02C701B601A501940176D2709369025D
:1017B0006093680265E472E082EB92E00E94BC03F1
:1017C00080916C0290916D020E94A80360E472E027
:1017D00082EB92E00E94BC0380916A0290916B02BE
:1017E0000E94A80362E572E082EB92E00E94BC03D3
:1017F00080916802909169020E94A803EEE6F2E0EF
:101800008E2F8219831510F41192FACF0E942103B2
:10181000E12CF12CC7010C969093AB028093AA02A5
:101820008CE0E816F10494F461E070E0C70117DA87
:101830002091B0023091B1024091AE025091AF02BE
:101840006091AC027091AD02C701EED961E070E029
:101850008091AA029091AB0202DA2091B0023091FD
:10186000B1024091AE025091AF026091AC02709112
:10187000AD028091AA029091AB02D6D960E070E0EF
:10188000C7010497ECD98091AA029091AB0260E065
:1018900070E00497E4D966E470E080E090E024D939
:1018A0009FEFE91AF90AA0E1EA16F10409F0B2CFB4
:1018B00023D8CBCC2E893F89488D598D26173707E1
:1018C0004807590708F0C8CDCECDE2EBF2E013820D
:1018D000128288EE93E0A0E0B0E084839583A68333
:1018E000B7838EE092E09183808385EC90E09587CA
:1018F000848784EC90E09787868780EC90E0918BDA
:10190000808B81EC90E0938B828B82EC90E0958BC6
:10191000848B86EC90E0978B868B118E128E138EC3
:10192000148EEFE4F3E01682178210861186128679
:1019300013861486158616861786108A118A128ACF
:10194000138A148A158AE7E9F3E081E08083118223
:1019500013821282158214829FEF9683178211865A
:1019600010868287138692E094878587168617866D
:10197000108A118A089587E993E044C9EE0FFF1F8A
:10198000881F8BBF0790F691E02D1994CF93DF93BA
:101990008230910510F482E090E0E091B703F0917D
:1019A000B80320E030E0C0E0D0E0309711F1408192
:1019B000518148175907C0F04817590761F48281CF
:1019C0009381209719F09B838A832BC09093B8034F
:1019D0008093B70326C02115310519F0421753072C
:1019E00018F49A01BE01DF01EF010280F381E02DBE
:1019F000DCCF2115310509F1281B390B24303105C5
:101A000090F412968D919C9113976115710521F0B8
:101A1000FB019383828304C09093B8038093B70340
:101A2000FD01329644C0FD01E20FF31F81939193B3
:101A3000225031092D933C933AC02091B503309147
:101A4000B603232B41F4209102023091030230931C
:101A5000B6032093B50320910002309101022115B5
:101A6000310541F42DB73EB7409104025091050273
:101A7000241B350BE091B503F091B603E217F30791
:101A8000A0F42E1B3F0B2817390778F0AC014E5FEE
:101A90005F4F2417350748F04E0F5F1F5093B60372
:101AA0004093B5038193919302C0E0E0F0E0CF0151
:101AB000DF91CF9108950F931F93CF93DF930097FA
:101AC00009F48CC0FC013297138212820091B70393
:101AD0001091B8030115110581F420813181820F25
:101AE000931F2091B5033091B6032817390779F574
:101AF000F093B603E093B50371C0D80140E050E025
:101B0000AE17BF0750F412962D913C911397AD017B
:101B10002115310509F1D901F3CF9D01DA01338394
:101B2000228360817181860F971F8217930769F462
:101B3000EC0128813981260F371F2E5F3F4F3183FB
:101B400020838A819B8193838283452B29F4F093A0
:101B5000B803E093B70342C01396FC93EE93129739
:101B6000ED01499159919E01240F351FE217F307AA
:101B700071F480819181840F951F029611969C9338
:101B80008E938281938113969C938E931297E0E0BB
:101B9000F0E0D80112968D919C911397009719F05F
:101BA000F8018C01F6CF8D919C9198012E5F3F4FEB
:101BB000820F931F2091B5033091B6032817390780
:101BC00069F4309729F41092B8031092B70302C059
:101BD000138212821093B6030093B503DF91CF9165
:101BE0001F910F91089581E090E0F894B2C08F9218
:101BF0009F92AF92BF92CF92DF92EF92FF92CF93DC
:101C0000DF93EC01688179818A819B81611571057F
:101C10008105910521F464E279ED8BE597E02DE1F2
:101C200033EF41E050E05AD049015A019B01AC0129
:101C3000A7EAB1E46FD06B017C01ACEEB4EFA50173
:101C4000940174D0DC01CB018C0D9D1DAE1DBF1D18
:101C5000B7FF03C00197A109B04888839983AA837D
:101C6000BB83BC01CD019F77DF91CF91FF90EF90B7
:101C7000DF90CF90BF90AF909F908F900895B7CF97
:101C800086E092E0B4CF60930602709307028093DF
:101C90000802909309020895A1E21A2EAA1BBB1B09
:101CA000FD010DC0AA1FBB1FEE1FFF1FA217B30728
:101CB000E407F50720F0A21BB30BE40BF50B661F3E
:101CC000771F881F991F1A9469F760957095809502
:101CD00090959B01AC01BD01CF010895052E97FBA6
:101CE00016F400940FD057FD05D0D6DF07FC02D0C4
:101CF00046F408C050954095309521953F4F4F4F81
:101D00005F4F089590958095709561957F4F8F4FA7
:101D10009F4F08950FD0A59F900DB49F900DA49F45
:101D2000800D911D11240895B7FFF4CFF3DF821BBE
:101D3000930B0895A29FB001B39FC001A39F700DA4
:101D4000811D1124911DB29F700D811D1124911DC3
:101D5000089511E0C8E0D1E000E005C0802FFE0149
:101D60000DDE2196011DC930D10780E00807B1F7CB
:041D7000F894FFCF15
:101D74000000B90380000100000000000000150409
:101D84003A01DF03BD03D1035B04564D4450565F53
:101D9400317C315F564D4450560D0A00564D445027
:101DA400455F003A323A007C005F564D445045008E
:101DB4004D696C6C695365636F6E64287329203AAE
:101DC40020004D6963726F5365636F6E64287329D5
:041DD400203A200091
:020000023000CC
:10E000000D9489F10D94B2F10D94B2F10D94B2F129
:10E010000D94B2F10D94B2F10D94B2F10D94B2F1F0
:10E020000D94B2F10D94B2F10D94B2F10D94B2F1E0
:10E030000D94B2F10D94B2F10D94B2F10D94B2F1D0
:10E040000D94B2F10D94B2F10D94B2F10D94B2F1C0
:10E050000D94B2F10D94B2F10D94B2F10D94B2F1B0
:10E060000D94B2F10D94B2F10D94B2F10D94B2F1A0
:10E070000D94B2F10D94B2F10D94B2F10D94B2F190
:10E080000D94B2F10D94B2F10D94B2F10D94B2F180
:10E090000D94B2F10D94B2F10D94B2F10D94B2F170
:10E0A0000D94B2F10D94B2F10D94B2F10D94B2F160
:10E0B0000D94B2F10D94B2F10D94B2F10D94B2F150
:10E0C0000D94B2F10D94B2F10D94B2F10D94B2F140
:10E0D0000D94B2F10D94B2F10D94B2F10D94B2F130
:10E0E0000D94B2F141546D656761323536300041AF
:10E0F000726475696E6F206578706C6F72657220DE
:10E1000073746B3530305632206279204D4C530099
:10E11000426F6F746C6F616465723E004875683F52
:10E1200000436F6D70696C6564206F6E203D200048
:10E130004350552054797065202020203D20005FF9
:10E140005F4156525F415243485F5F3D2000415658
:10E1500052204C696243205665723D20004743437C
:10E160002056657273696F6E203D20004350552024
:10E1700049442020202020203D20004C6F7720663D
:10E18000757365202020203D20004869676820665F
:10E190007573652020203D200045787420667573D6
:10E1A00065202020203D20004C6F636B2066757336
:10E1B000652020203D20004D617220203720323024
:10E1C000313300312E362E3800342E332E350056A2
:10E1D00023202020414444522020206F7020636F70
:10E1E00064652020202020696E73747275637469E1
:10E1F0006F6E2061646472202020496E74657272B3
:10E20000757074006E6F20766563746F7200726A49
:10E210006D702020006A6D70200057686174207056
:10E220006F72743A00506F7274206E6F7420737541
:10E2300070706F72746564004D7573742062652030
:10E2400061206C6574746572002000577269747483
:10E25000696E672045450052656164696E672045B7
:10E26000450045452065727220636E743D00504F35
:10E27000525400303D5A65726F2061646472003FF1
:10E280003D43505520737461747300403D454550C3
:10E29000524F4D207465737400423D426C696E6B41
:10E2A000204C454400453D44756D70204545505215
:10E2B0004F4D00463D44756D7020464C415348001B
:10E2C000483D48656C70004C3D4C69737420492F83
:10E2D0004F20506F72747300513D51756974005234
:10E2E0003D44756D702052414D00563D73686F7707
:10E2F00020696E7465727275707420566563746FF0
:10E30000727300593D506F727420626C696E6B00BD
:10E310002A0011241FBECFEFD1E2DEBFCDBF01E046
:10E320000CBF12E0A0E0B2E0EEE1FDEF03E00BBFB6
:10E3300002C007900D92A030B107D9F712E0A0E01B
:10E34000B2E001C01D92AE30B107E1F70F9460F367
:10E350000D948DFE01E20EBF0FEF0DBF11241FBE05
:10E360000D9460F30D9400F020E030E040ED57E0B4
:10E3700005C0FA013197F1F72F5F3F4F2817390792
:10E38000C0F308959C01260F311DC901A0E0B0E043
:10E390002F5F3F4FABBFFC018791882361F08093D3
:10E3A000C6008091C00086FFFCCF8091C0008064D1
:10E3B0008093C000EACF08958DE08093C6008091DD
:10E3C000C00086FFFCCF8091C00080648093C000B5
:10E3D0008AE08093C6008091C00086FFFCCF8091C8
:10E3E000C00080648093C00008950F94C2F10F9420
:10E3F000DCF10895FC019081992359F09093C600B7
:10E400008091C00086FFFCCF8091C0008064809323
:10E41000C0003196992379F70895282F982F929567
:10E420009F70892F805D8A3308F0895F8093C600D2
:10E430008091C00086FFFCCF8091C00080648093F3
:10E44000C000822F8F70982F905D9A3308F0995FEB
:10E450009093C6008091C00086FFFCCF8091C000E1
:10E4600080648093C00008959C01FB01853691056E
:10E470001CF46330710594F0C90164E670E00F94F8
:10E480002EFE605D7F4F6093C6008091C00086FFC6
:10E49000FCCF8091C00080648093C0002B30310598
:10E4A00014F43297B4F0C90164E670E00F942EFEC4
:10E4B0006AE070E00F942EFE605D7F4F6093C600AF
:10E4C0008091C00086FFFCCF8091C0008064809363
:10E4D000C000C9016AE070E00F942EFEC0968093E0
:10E4E000C6008091C00086FFFCCF8091C000806490
:10E4F0008093C00008951F93182F8EE692EE60E07F
:10E500000F94C2F11093C6008091C00086FFFCCF2B
:10E510008091C00080648093C0000F94DCF11F9153
:10E5200008952F923F924F925F926F927F928F92B7
:10E530009F92AF92BF92CF92DF92EF92FF920F9392
:10E540001F93DF93CF93CDB7DEB762970FB6F894E2
:10E55000DEBF0FBECDBF382E622ECA01DB015C01CB
:10E560006D01772420E2222E2E010894411C511CBB
:10E570008BC081E0A81680E0B80681E0C80680E084
:10E58000D80628F0C601AA27BB270F940DF2BB2797
:10E59000AD2D9C2D8B2D0F940DF28A2D0F940DF225
:10E5A0002092C6008091C00086FFFCCF8091C00001
:10E5B00080648093C0009DE29093C6008091C0006B
:10E5C00086FFFCCF8091C00080648093C0002092C1
:10E5D000C6008091C00086FFFCCF8091C00080649F
:10E5E0008093C00019828601750188249924A1E0D6
:10E5F0003A1651F03A1620F0B2E03B1661F409C029
:10E600000BBFF701779007C0C7010F9477FE782EF4
:10E6100002C0F7017080872D0F940DF22092C60082
:10E620008091C00086FFFCCF8091C0008064809301
:10E63000C000872D8052F401EF70F0708F3520F408
:10E64000E40DF51D708204C0E40DF51D8EE280839B
:10E650000894E11CF11C011D111D0894811C911CE2
:10E6600090E18916910409F0C2CF80E190E0A0E02A
:10E67000B0E0A80EB91ECA1EDB1E198AC2010F9493
:10E68000FAF10F94DCF16A94662009F072CF629679
:10E690000FB6F894DEBF0FBECDBFCF91DF911F91B3
:10E6A0000F91FF90EF90DF90CF90BF90AF909F9031
:10E6B0008F907F906F905F904F903F902F90089534
:10E6C0002F923F924F925F926F927F928F929F9282
:10E6D000AF92BF92CF92DF92EF92FF920F931F9370
:10E6E000DF93CF93CDB7DEB7CD53D1400FB6F894BB
:10E6F000DEBF0FBECDBF01E20EBF0FEF0DBF94B75F
:10E70000F894A89514BE80916000886180936000A1
:10E7100010926000789493FF05C0E0910002F091A0
:10E7200001021995279A2F9A8091C00082608093E8
:10E73000C00080E18093C40088E18093C1000000A4
:10E74000EE24FF24870144E0A42EB12CCC24DD2448
:10E7500024C0C5010197F1F70894E11CF11C011DCB
:10E76000111D21E2E2162EE4F20620E0020720E06D
:10E77000120718F031E0C32ED12CC801B70127ECE5
:10E780003BE140E050E00F9441FE611571058105C9
:10E79000910519F485B1805885B98091C00087FD35
:10E7A00003C0C114D104A9F2A6014F5F5F4FC25E3E
:10E7B000DE4F59834883CE51D140C25EDE4F8881FF
:10E7C0009981CE51D140019711F00D9410FEC05D9A
:10E7D000DE4F19821882C053D14060E0C15DDE4F28
:10E7E0001882CF52D14088249924C35DDE4F19820C
:10E7F0001882CD52D140C05EDE4F188219821A8233
:10E800001B82C052D140CE5CDE4F188219821A8220
:10E810001B82C253D140EE24FF2487010BBFF701B6
:10E8200007911691C45CDE4F19830883CC53D14005
:10E830000D940BFEC25EDE4F28813981CE51D1404E
:10E840002130310509F52091C600C25EDE4F1982E4
:10E850001882CE51D14022C02F5F3F4F4F4F5F4FA4
:10E86000213082E138078AE7480780E0580780F0C6
:10E87000C45CDE4FE881F981CC53D140EF5FFF4F9C
:10E8800019F0EE27FF27099420E030E040E050E047
:10E890008091C00087FFE0CF2091C600C35DDE4FAE
:10E8A00048815981CD52D1404F5F5F4FC35DDE4FEC
:10E8B00059834883CD52D140213209F063C64A3092
:10E8C000510508F05FC60894811C911C53E0851621
:10E8D000910409F059C600E010E018C081E280936D
:10E8E000C6008091C00086FFFCCF8091C00080648C
:10E8F0008093C0002F5F3F4F2931310579F70F9486
:10E90000DCF10F5F1F4F0530110519F020E030E0FA
:10E91000E5CF10920A0210920B0210920C02109294
:10E920000D02109206021092070210920802109235
:10E930000902109202021092030210920402109235
:10E9400005028FEE90EE60E00F94F5F180E191EE1C
:10E9500060E00F94C2F18091C00087FFFCCF9091DE
:10E96000C600903608F09F759032B8F09093C600BC
:10E970008091C00086FFFCCF8091C00080648093AE
:10E98000C000A0E2A093C6008091C00086FFFCCF2B
:10E990008091C00080648093C000983409F4D7C18E
:10E9A0009934B8F4923409F459C1933458F490333B
:10E9B00019F1903308F4E3C59F33A1F1903409F0C5
:10E9C000DEC5BDC0953409F470C1963409F0D7C5D1
:10E9D00098C1923509F42BC2933538F49C3409F46C
:10E9E000F5C1913509F0CBC518C2963509F445C279
:10E9F000993509F0C4C567C483E792EE62E00F94CD
:10EA0000F5F110920602109207021092080210927D
:10EA1000090210920A0210920B0210920C0210923C
:10EA20000D0213C18FE792EE62E00F94F5F18FEEC5
:10EA300090EE60E00F94F5F181E291EE60E00F94CA
:10EA4000C2F187EB91EE60E00F94F5F180E391EE77
:10EA500060E00F94C2F184EE90EE60E00F94F5F167
:10EA60008FE391EE60E00F94C2F186E090E061E008
:10EA700070E00F9434F20F94DCF18DE591EE60E0DC
:10EA80000F94C2F189EC91EE60E00F94F5F18EE401
:10EA900091EE60E00F94C2F183EC91EE60E00F9490
:10EAA000F5F18CE691EE60E00F94C2F18EE10F94E7
:10EAB0000DF288E90F940DF281E00F940DF20F949E
:10EAC000DCF18BE791EE60E00F94C2F119E0E0E039
:10EAD000F0E010935700E4918E2F0F940DF20F94F5
:10EAE000DCF18AE891EE60E00F94C2F1E3E0F0E03F
:10EAF00010935700E4918E2F0F940DF20F94DCF1D8
:10EB000089E991EE60E00F94C2F1E2E0F0E0109349
:10EB10005700E4918E2F0F940DF20F94DCF188EAE8
:10EB200091EE60E00F94C2F1E1E0F0E01093570045
:10EB30001491812F0F940DF20F94DCF107CF8BE825
:10EB400092EE62E00F94F5F18BE492EE60E00F94A8
:10EB5000F5F10F94DCF100E010E019C0C8016F2D51
:10EB60000F947FFEFF2031F489E492EE60E00F9471
:10EB7000C2F10BC0F092C6008091C00086FFFCCFAE
:10EB80008091C00080648093C0000F5F1F4FC80158
:10EB900081519F41A0E0B0E0ABBFFC01F790BAE229
:10EBA000FB1621F0E2E000301E07C1F60F94DCF105
:10EBB0000F94DCF187E592EE60E00F94F5F10F948D
:10EBC000DCF1CC24DD2400E010E01EC0C8010F946D
:10EBD00077FEF82E882331F489E492EE60E00F94FA
:10EBE000C2F10BC08093C6008091C00086FFFCCFAD
:10EBF0008091C00080648093C000FE1419F00894D6
:10EC0000C11CD11C0F5F1F4FC80181519F41A0E063
:10EC1000B0E0ABBFFC01E790FAE2EF1621F022E092
:10EC20000030120799F60F94DCF10F94DCF182E6C4
:10EC300092EE60E00F94C2F1C60161E070E00F94C3
:10EC400034F20F94DCF10F94DCF110920202109276
:10EC50000302109204021092050278CE89E992EE26
:10EC600062E00F94F5F1279A2F9A16C02F9880E052
:10EC700090E0E0EDF7E03197F1F7019684369105E9
:10EC8000C1F72F9A80E090E0E0EDF7E03197F1F7DF
:10EC9000019684369105C1F78091C00087FFE6CFC9
:10ECA0008091C00087FFFCCF64C485EA92EE62E0E9
:10ECB0000F94F5F140910202509103026091040219
:10ECC0007091050281E020E10F9491F2809102029F
:10ECD00090910302A0910402B091050280509F4FD1
:10ECE000AF4FBF4F8093020290930302A0930402A0
:10ECF000B093050280509041A040B04008F426CE69
:10ED0000A4CF83EB92EE62E00F94F5F140910602FE
:10ED100050910702609108027091090280E020E1A1
:10ED20000F9491F28091060290910702A09108023F
:10ED3000B091090280509F4FAF4FBF4F80930602A2
:10ED400090930702A0930802B0930902FFCD80ECD4
:10ED500092EE62E00F94F5F183E792EE60E00F949B
:10ED6000F5F18FE792EE60E00F94F5F18BE892EE0B
:10ED700060E00F94F5F189E992EE60E00F94F5F10F
:10ED800085EA92EE60E00F94F5F183EB92EE60E09D
:10ED90000F94F5F180EC92EE60E00F94F5F187ECC2
:10EDA00092EE60E00F94F5F188ED92EE60E00F9442
:10EDB000F5F18FED92EE60E00F94F5F18AEE92EEB0
:10EDC00060E00F94F5F183E093EEBDCD87EC92EE19
:10EDD00062E00F94F5F181E40F947BF282E40F94EA
:10EDE0007BF283E40F947BF284E40F947BF285E45E
:10EDF0000F947BF286E40F947BF287E40F947BF20E
:10EE000088E40F947BF28AE40F947BF28BE40F94F6
:10EE10007BF28CE40F947BF299CD88ED92EE62E068
:10EE20000F94F5F1772473948824992409C48FED05
:10EE300092EE62E00F94F5F140910A0250910B02BC
:10EE400060910C0270910D0282E020E10F9491F22A
:10EE500080910A0290910B02A0910C02B0910D02D8
:10EE600080509F4FAF4FBF4F80930A0290930B0289
:10EE7000A0930C02B0930D0269CD8AEE92EE62E08F
:10EE80000F94F5F184EE90EE60E00F94F5F18FECC5
:10EE900091EE60E00F94F5F1662477244301CC5D98
:10EEA000DE4F19821882C452D140D401C301B695F5
:10EEB000A79597958795CA5DDE4F88839983AA8326
:10EEC000BB83C652D140CC5DDE4FA881B981C4520C
:10EED000D1401196CC5DDE4FB983A883C452D14096
:10EEE000CD0162E070E00F9434F2B0E2B093C6005E
:10EEF0008091C00086FFFCCF8091C0008064809329
:10EF0000C000EDE2E093C6008091C00086FFFCCF18
:10EF10008091C00080648093C000F0E2F093C6004E
:10EF20008091C00086FFFCCF8091C00080648093F8
:10EF3000C000CA5DDE4FE880F9800A811B81C6529D
:10EF4000D140BB27A12F902F8F2D0F940DF2CA5DBA
:10EF5000DE4F8881C652D1400F940DF2B0E2FB2EF5
:10EF6000F092C6008091C00086FFFCCF8091C00067
:10EF700080648093C0000DE30093C6008091C000C0
:10EF800086FFFCCF8091C00080648093C00010E2B7
:10EF90001093C6008091C00086FFFCCF8091C00016
:10EFA00080648093C0008BBEF3012791C65DDE4F65
:10EFB0002883CA52D140A22EBB24CC24DD2408943D
:10EFC000611C711C811C911C8BBEF3018791282E42
:10EFD0003324442455240894611C711C811C911C09
:10EFE0008BBEF3013791C55DDE4F3883CB52D140E4
:10EFF0000894611C711C811C911C8BBEF30147910C
:10F00000C45DDE4F4883CC52D140ADEFEA2EAFEF66
:10F01000FA2EAFEF0A2FAFEF1A2F6E0C7F1C801E57
:10F02000911E142D032DF22CEE24EA0CFB1C0C1D5A
:10F030001D1D0F940DF220E22093C6008091C000A8
:10F0400086FFFCCF8091C00080648093C000C65DC5
:10F05000DE4F8881CA52D1400F940DF230E23093D6
:10F06000C6008091C00086FFFCCF8091C000806404
:10F070008093C000C45DDE4F8881CC52D1400F9494
:10F080000DF240E24093C6008091C00086FFFCCFA5
:10F090008091C00080648093C000C55DDE4F888190
:10F0A000CB52D1400F940DF250E25093C6008091A4
:10F0B000C00086FFFCCF8091C00080648093C000B8
:10F0C0008FEFE8168FEFF80680E0080780E018075A
:10F0D00031F484E092EE60E00F94C2F1DFC0D80119
:10F0E000C7018070907CA070B0708050904CA040A0
:10F0F000B040D1F52FEF3FE340E050E0E222F322B1
:10F1000004231523CA5DDE4FA880B980CA80DB8046
:10F11000C652D140AE0CBF1CC01ED11EAA0CBB1CD7
:10F12000CC1CDD1C8EE092EE60E00F94C2F1BB2798
:10F13000A12F902F8F2D0F940DF28E2D0F940DF285
:10F1400030E23093C6008091C00086FFFCCF8091F2
:10F15000C00080648093C0004EE34093C60080915D
:10F16000C00086FFFCCF87C08EE09EEFA0E0B0E03D
:10F17000E822F9220A231B239CE0E91694E9F90608
:10F1800090E0090790E0190709F088C0C45DDE4FE0
:10F19000A881CC52D140EA2EFF2400E010E0102FCD
:10F1A0000F2DFE2CEE24C55DDE4FB881CB52D14031
:10F1B000EB0EF11C011D111DD601C501817090706F
:10F1C000A070B070DC0199278827E80EF91E0A1F8D
:10F1D0001B1F20EF30E040E050E0A222B322C42207
:10F1E000D52241E1AA0CBB1CCC1CDD1C4A95D1F7F1
:10F1F000EA0CFB1C0C1D1D1D81E090E0A0E0B0E0BE
:10F20000282239224A225B2235E1220C331C441C7D
:10F21000551C3A95D1F7E20CF31C041D151D57013E
:10F220006801AA0CBB1CCC1CDD1C85E192EE60E0E1
:10F230000F94C2F1C801AA27BB270F940DF2BB2778
:10F24000A12F902F8F2D0F940DF28E2D0F940DF274
:10F2500090E29093C6008091C00086FFFCCF809121
:10F26000C00080648093C000AEE3A093C60080918C
:10F27000C00086FFFCCF8091C00080648093C000F6
:10F28000C601AA27BB270F940DF2BB27AD2D9C2DDD
:10F290008B2D0F940DF28A2D0F940DF20F94DCF14B
:10F2A000CC5DDE4FE881F981C452D140F99709F471
:10F2B0004DCBF4E0EF2EF12C012D112D6E0C7F1CA7
:10F2C000801E911EF2CD83E093EE62E00F94F5F183
:10F2D0008AE192EE60E00F94C2F18091C00087FF56
:10F2E000FCCF1091C6001F751093C6008091C0001E
:10F2F00086FFFCCF8091C00080648093C0000F9493
:10F30000DCF1812F81548A3108F036C1163409F4BA
:10F3100095C0173490F4133409F44EC0143430F40B
:10F320001134F1F0123409F01DC130C0143409F465
:10F3300059C0153409F016C16BC01A3409F4C4C0A1
:10F340001B3438F4173409F48FC0183409F00AC19B
:10F35000A1C01B3409F4D2C01C3409F003C1E8C0B9
:10F360008FEF81B90DC082B1809582B980E090E0C5
:10F37000E0EDF7E03197F1F70196883C9105C1F790
:10F380008091C00087FFEFCF12B8EFC08FEF84B934
:10F390000DC085B1809585B980E090E0E0EDF7E0A3
:10F3A0003197F1F70196883C9105C1F78091C00033
:10F3B00087FFEFCF15B8D9C08FEF87B90DC088B1DF
:10F3C000809588B980E090E0E0EDF7E03197F1F7C3
:10F3D0000196883C9105C1F78091C00087FFEFCF6F
:10F3E00018B8C3C08FEF8AB90DC08BB180958BB9A7
:10F3F00080E090E0E0EDF7E03197F1F70196883C8E
:10F400009105C1F78091C00087FFEFCF1BB8ADC059
:10F410008FEF8DB90DC08EB180958EB980E090E0F0
:10F42000E0EDF7E03197F1F70196883C9105C1F7DF
:10F430008091C00087FFEFCF1EB897C08FEF80BBD1
:10F440000DC081B3809581BB80E090E0E0EDF7E0F6
:10F450003197F1F70196883C9105C1F78091C00082
:10F4600087FFEFCF11BA81C08FEF83BB0DC084B38C
:10F47000809584BB80E090E0E0EDF7E03197F1F714
:10F480000196883C9105C1F78091C00087FFEFCFBE
:10F4900014BA6BC08FEF809301010FC080910201FD
:10F4A00080958093020180E090E0E0EDF7E03197F5
:10F4B000F1F70196883C9105C1F78091C00087FF64
:10F4C000EDCF1092020151C08FEF809304010FC065
:10F4D0008091050180958093050180E090E0E0ED4A
:10F4E000F7E03197F1F70196883C9105C1F78091DB
:10F4F000C00087FFEDCF1092050137C08FEF8093DA
:10F5000007010FC08091080180958093080180E079
:10F5100090E0E0EDF7E03197F1F70196883C910536
:10F52000C1F78091C00087FFEDCF109208011DC088
:10F530008FEF80930A010FC080910B01809580931B
:10F540000B0180E090E0E0EDF7E03197F1F70196F4
:10F55000883C9105C1F78091C00087FFEDCF1092E4
:10F560000B0103C085E292EEEEC98091C00087FFD7
:10F57000FCCF8091C600EAC988E392EEE4C98CE131
:10F5800091EEE1C988249924933011F1943028F444
:10F59000913089F09230B8F408C0953061F195301F
:10F5A000F0F0963009F048C043C02B3109F042C951
:10F5B00091E06BE13FC96227C15DDE4F2883CF52E6
:10F5C000D14092E037C9B22FA0E0622793E032C960
:10F5D000822F90E0A82BB92B622794E02BC92E3004
:10F5E00009F039C3622795E0C05DDE4F19821882A9
:10F5F000C053D1401FC9E1E0F0E0EC0FFD1FC05D3A
:10F60000DE4F08811981C053D140E00FF11F2083E4
:10F610000F5F1F4FC05DDE4F19830883C053D14079
:10F6200062270A171B0709F005C9D80196E002C92D
:10F63000261709F010C303C0973009F0FBC87724E0
:10F640009981933109F412C19431C8F4963009F4C8
:10F65000D8C0973050F4923009F406C1933009F4C1
:10F660006DC0913009F059C253C0913109F477C08F
:10F67000923108F0BBC0903109F04FC2F5C098310B
:10F6800009F487C0993150F4953109F4EFC09531F0
:10F6900008F4C6C1963109F040C2C2C19A3109F4DA
:10F6A0006CC09A3108F491C09B3109F45BC09D3164
:10F6B00009F033C29D81903359F48F81882311F46E
:10F6C0009EE11CC0813011F091E018C098E916C08D
:10F6D000892F807591F0903539F4E0E0F0E089E011
:10F6E0008093570094910AC0983539F4E3E0F0E034
:10F6F00089E080935700949101C090E01A821B82A8
:10F700008D818C831D829E831F8227E030E009C299
:10F710001A8288E08B8381E48C8386E58D8382E581
:10F720008E8389E48F8383E5888780E589878FE5E9
:10F730008A8782E38B872BE030E0F3C18A818139AD
:10F7400041F0823941F0803911F48FE005C080E04A
:10F7500003C082E001C08AE01A828B8344C0772410
:10F76000739482C08D81882311F48EE12CC0813086
:10F7700011F081E028C088E926C01A82E1E0F0E0BB
:10F7800089E08093570084918B831C8224E030E0D1
:10F79000C8C18B81803589F48C81883039F4E2E0EE
:10F7A000F0E089E08093570084910DC0E0E0F0E044
:10F7B00089E080935700849106C0E3E0F0E089E09F
:10F7C0008093570084911A82DFCF8D81836C99E0FA
:10F7D000E1E0F0E0082E90935700E89507B600FCB2
:10F7E000FDCF1A821B8223E030E09BC180EC8A832C
:10F7F000CE5CDE4F188219821A821B82C253D1401E
:10F800008EC18A8190E0A0E0B0E0582F44273327D2
:10F8100022278B8190E0A0E0B0E0DC0199278827C7
:10F82000282B392B4A2B5B2B8D8190E0A0E0B0E098
:10F83000282B392B4A2B5B2B8C8190E0A0E0B0E089
:10F84000BA2FA92F982F8827282B392B4A2B5B2BCF
:10F85000220F331F441F551FC05EDE4F288339839C
:10F860004A835B83C052D1401A8259C13A81C95C34
:10F87000DE4F3883C753D140CA5CDE4F1882C6536F
:10F88000D1408B81C82EDD24CA5CDE4F488159816E
:10F89000C653D140C42AD52A933109F082C0CE5C28
:10F8A000DE4F88819981AA81BB81C253D1408050AB
:10F8B000904CA340B04030F583E0CE5CDE4FE88052
:10F8C000F9800A811B81C253D140F70100935B008C
:10F8D00080935700E89507B600FCFDCFCE5CDE4F65
:10F8E000088119812A813B81C253D14000501F4FAA
:10F8F0002F4F3F4FCE5CDE4F088319832A833B8313
:10F90000C253D140C05EDE4F488159816A817B81FC
:10F91000C052D140DE011B9631E08C9111962C91A2
:10F9200011971296C75CDE4F2883C953D140C85C3B
:10F93000DE4F1882C853D14090E0C85CDE4FE881AA
:10F94000F981C853D1408E2B9F2B0C01FA01609393
:10F950005B0030935700E89511244E5F5F4F6F4F67
:10F960007F4F0EEFE02E0FEFF02ECE0CDF1CC114F8
:10F97000D10499F685E0C05EDE4F088119812A81A5
:10F980003B81C052D140F80120935B008093570027
:10F99000E89507B600FCFDCF81E180935700E8951C
:10F9A00035C0C05EDE4F88819981AA81BB81C0527B
:10F9B000D140B695A795979587957C018601ABE0D8
:10F9C000AA2EB12CAC0EBD1E0BC0D5016D915D01F0
:10F9D000C7010F947FFE0894E11CF11C01501040F8
:10F9E0000115110591F7A60160E070E0440F551F65
:10F9F000661F771FC05EDE4FE880F9800A811B8199
:10FA0000C052D1404E0D5F1D601F711F1A82C05E33
:10FA1000DE4F488359836A837B83C052D1407FC0C5
:10FA2000FA80C55CDE4FF882CB53D140C65CDE4F16
:10FA30001882CA53D1408B81C82EDD24C65CDE4FAC
:10FA400008811981CA53D140C02AD12A1A828981DA
:10FA5000BE016D5F7F4F843121F59601C05EDE4FA0
:10FA6000E880F9800A811B81C052D1400BBFF701A9
:10FA700087919691DB018C9311969C936E5F7F4FDB
:10FA8000D801C7010296A11DB11DC05EDE4F88835B
:10FA90009983AA83BB83C052D14022503040F1F6F3
:10FAA00036C0C05EDE4F288139814A815B81C052F9
:10FAB000D1400894C108D108760100E010E0089414
:10FAC000C11CD11C0894E11CF11C011D111DE20E8A
:10FAD000F31E041F151F21BDBB27A52F942F832FB5
:10FAE00082BD2F5F3F4F4F4F5F4FF89A80B5DB01CC
:10FAF0008D93BD012E153F054007510761F7C05E8C
:10FB0000DE4F288339834A835B83C052D1409601FC
:10FB10002D5F3F4FFB01108204C080EC8A8322E0FE
:10FB200030E08BE18093C6008091C00086FFFCCF5F
:10FB30008091C00080648093C000C15DDE4FF88179
:10FB4000CF52D140F093C6008091C00086FFFCCF19
:10FB50008091C00080648093C000432F3093C60022
:10FB60008091C00086FFFCCF8091C00080648093AC
:10FB7000C000922F2093C6008091C00086FFFCCF6A
:10FB80008091C00080648093C0008EE08093C600A6
:10FB90008091C00086FFFCCF8091C000806480937C
:10FBA000C00065E1C15DDE4FE880CF52D1406E25D7
:10FBB00069276427FE01319610C090819093C6009A
:10FBC0008091C00086FFFCCF31968091C000806498
:10FBD0008093C0006927215030402115310569F715
:10FBE0006093C6008091C00086FFFCCF8091C0006A
:10FBF00080648093C00085B1805885B9772081F4F6
:10FC0000C15DDE4F0881CF52D1400F5FC15DDE4F35
:10FC10000883CF52D14090E0A0E0B0E00D941AF4F8
:10FC200027982F9880E090E020ED37E0F901319798
:10FC3000F1F7019684369105C9F700008091C00064
:10FC40008D7F8093C00081E180935700E895EE2777
:10FC5000FF270994FFCF90E00D941AF497FB092E2B
:10FC600007260AD077FD04D02ED006D000201AF443
:10FC7000709561957F4F0895F6F7909581959F4F08
:10FC80000895A1E21A2EAA1BBB1BFD010DC0AA1FDD
:10FC9000BB1FEE1FFF1FA217B307E407F50720F0F5
:10FCA000A21BB30BE40BF50B661F771F881F991F70
:10FCB0001A9469F760957095809590959B01AC01B9
:10FCC000BD01CF010895AA1BBB1B51E107C0AA1FAC
:10FCD000BB1FA617B70710F0A61BB70B881F991FED
:10FCE0005A95A9F780959095BC01CD010895F99991
:10FCF000FECF92BD81BDF89A992780B50895262F31
:10FD0000F999FECF1FBA92BD81BD20BD0FB6F89400
:0EFD1000FA9AF99A0FBE01960895F894FFCF63
:040000033000E000E9
:00000001FF