:1000000008C1000036C1000034C1000032C1000048
:1000100030C100002EC100002CC100002AC1000028
:1000200028C1000026C1000024C1000022C1000038
:1000300020C100001EC100001CC100001AC1000048
:1000400018C1000016C1000014C1000012C1000058
:100050003CC600000EC100000CC1000089C50000B4
:1000600008C10000AAC400007FC4000002C1000053
:1000700000C10000FEC00000FCC00000FAC000008B
:10008000F8C00000F6C00000F4C00000F2C000009C
:10009000F0C00000EEC00000ECC00000EAC00000AC
:1000A000E8C00000E6C00000E4C00000E2C00000BC
:1000B000E0C00000DEC00000DCC00000DAC00000CC
:1000C000D8C00000D6C00000D4C00000D2C00000DC
:1000D000D0C00000CEC00000CCC00000CAC00000EC
:1000E000C8C00000BD01C001AF01B301B701F701F5
:1000F000C401C801CE01D201D601DC01E001E40156
:10010000F701EA01EE01F2010000220025002800BB
:100110002B002E003100340002010000050108010F
:100120000B0105050505070508080808020202027B
:100130000A0A080804040404010101010101010183
:100140000303030303030303040707070C0C0C0C4E
:100150000C0C0C0C02020202060606060606060637
:100160000B0B0B0B0B0B0B0B0102102020080810C4
:100170002040102040800201020108040201010217
:1001800004081020408080402010080402018004F0
:10019000020180402010080402010804020101024B
:1001A0000408102040800102040810204080000054
:1001B0000A0B02090C0D0E080703040100000000E1
:1001C000000000000000000000000000000000002F
:1001D00000000000000000000000121110000000EC
:1001E000000000000000000000000000000000000F
:1001F0000000000000002100240027002A002D003C
:100200003000330001010000040107010A01650C00
:10021000BB0C11241FBECFEFD1E2DEBFCDBF00E08B
:100220000CBF12E0A0E0B2E0E4E7FDE100E00BBFAC
:1002300002C007900D92A436B107D9F723E0A4E6D7
:10024000B2E001C01D92A93BB207E1F711E0C8E09E
:10025000D1E000E006C021970109802FFE010E9435
:10026000BE0CC730D10780E00807A9F753D50C941E
:10027000A90EC6CECF92DF92EF92FF920F931F93FB
:10028000CF93DF936C017A018B01C0E0D0E0CE15F3
:10029000DF0589F0D8016D918D01D601ED91FC91BA
:1002A0000190F081E02DC6011995892B11F47E0192
:1002B00002C02196ECCFC701DF91CF911F910F9122
:1002C000FF90EF90DF90CF9008950E94F30DE2EB46
:1002D000F2E0A089B18982E08C93A485B5851C9257
:1002E000A685B78580E18C93108EA489B58986E0B8
:1002F0008C93A289B3898C9180618C93A289B389F4
:100300008C9188608C93A289B3898C9180688C933E
:100310000288F389E02D80818F7D8083089590E0AD
:10032000FC01E255FE4F4491FC01E859FE4F249137
:10033000FC01EE5DFE4F9491992309F467C04423BC
:1003400009F455C050E0FA013197E231F10508F0A7
:100350004EC08827EE58FF4F8F4F0C94BE0C8091F3
:1003600080008F7707C0809180008F7D03C08091CF
:100370008000877F809380003AC084B58F7702C069
:1003800084B58F7D84BD33C08091B0008F7703C06A
:100390008091B0008F7D8093B00029C08091900043
:1003A0008F7707C0809190008F7D03C0809190006F
:1003B000877F809390001BC08091A0008F7707C03B
:1003C0008091A0008F7D03C08091A000877F8093E3
:1003D000A0000DC0809120018F7707C0809120017F
:1003E0008F7D03C080912001877F80932001E92FBA
:1003F000F0E0EE0FFF1FE85FFE4FA591B4918FB7BD
:10040000F894EC9120952E232C938FBF08950F9391
:100410001F93CF93DF93CDB7DEB729970FB6F8942C
:10042000DEBF0FBECDBF3BD30091A5031091A60345
:100430002091A7033091A803DC01CB01801B910B15
:10044000A20BB30B8C329140A105B10560F3F89477
:1004500080919B0390919C039A838983E0919F03F1
:10046000F091A003DF011196808189879091970315
:10047000E091A903F091AA038091AB03992309F4B9
:100480002EC09081982B98879081809589238F83A7
:100490008F818C8388E08B8358856F8149853B8170
:1004A0002C8189819A81508347FD252F3A9520839D
:1004B000262F39F0441F00C000006083000000C0F8
:1004C000F2CF38E04D9160830000019761F7F0931F
:1004D000AA03E093A90349873B832C8338C090810A
:1004E000982B98879081809589238F838F818E8325
:1004F00088E08D8358856F8149853D812E81898172
:100500009A81508347FD252F00C000C0208300C082
:1005100000C000C000C000C060830000262F3A95D4
:1005200041F0441F000000C000C000C000C000C077
:10053000E8CF38E04D9100C0608300C0019709F713
:10054000F093AA03E093A90349873D832E839A83FE
:1005500089837894A4D26093A5037093A6038093B3
:10056000A7039093A80329960FB6F894DEBF0FBE99
:10057000CDBFDF91CF911F910F9108958F929F92E0
:10058000AF92BF92CF92DF92EF92FF924B01AA24DB
:10059000BB24E82DC52ED62EE72EFF24FC2D342FAC
:1005A00020919E03222361F0829E40011124E92DB7
:1005B000C29E60011124FD2D429FD00111243B2FCA
:1005C000F090A403E090A103A0919F03B091A00339
:1005D000FE1008C0AC01440F551F840F951F8A0FF1
:1005E0009B1F14C0880F991F880F991F8A0F9B1F8C
:1005F000472F552766277727DC01AF0DB11D222332
:1006000021F0429FA0011124452F4C932091A1037A
:10061000DC01A20FB11DEC932091A203DC01A20F1B
:10062000B11DFC932091A303FC01E20FF11D308367
:10063000FF90EF90DF90CF90BF90AF909F908F9002
:1006400008954091B0025091B1022091AC023091D6
:10065000AD028091AE029091AF026FE070E0421B5C
:10066000530B280F391F8F3F91051CF488539F4F60
:1006700002C0885C91096150710989F79093AF02BB
:100680008093AE025093B1024093B0023093AD021A
:100690002093AC0208956115710579F0FB0101907A
:1006A0000020E9F73197AF01461B570BDC01ED91B4
:1006B000FC910280F381E02D199480E090E0089590
:1006C0004F925F926F927F92EF92FF920F931F93E0
:1006D000CF93DF93CDB7DEB7A1970FB6F894DEBF07
:1006E0000FBECDBF7C01FA01CB0119A2223008F464
:1006F0002AE08E010F5D1F4F422E512C612C712C70
:10070000BF01A30192010E944C0EF901CA010150E0
:1007100011096A3014F4605D01C0695CD8016C9302
:10072000232B242B252B61F7B801C701B4DFA19639
:100730000FB6F894DEBF0FBECDBFDF91CF911F91F2
:100740000F91FF90EF907F906F905F904F90089582
:10075000CF93DF93AC0160E070E02AE082EB92E09F
:10076000AFDFEC0169E272E082EB92E094DF8C0F84
:100770009D1FDF91CF9108958ECFFC01918D828DC9
:10078000981761F0828DDF01A80FB11D5D968C91E5
:10079000928D9F5F9F73928F90E008958FEF9FEFF0
:1007A0000895FC01918D828D981731F0828DE80FAC
:1007B000F11D858D90E008958FEF9FEF0895FC0166
:1007C000918D228D892F90E0805C9F4F821B910933
:1007D0008F739927089582EB92E0F1DF21E0892B56
:1007E00009F420E0822F0895FC01848DDF01A80F19
:1007F000B11DA35ABF4F2C91848D90E001968F7349
:100800009927848FA689B7892C93A089B1898C9167
:1008100080648C93938D848D981306C00288F3892D
:10082000E02D80818F7D80830895EF92FF920F935A
:100830001F93CF93DF93EC0181E0888F9B8D8C8D8C
:10084000981305C0E889F989808185FD23C0F62EBB
:100850000B8D10E00F5F1F4F0F731127E02E8C8D53
:10086000E8120BC00FB607FCFACFE889F98980813E
:1008700085FFF5CFCE01B8DFF2CF8B8DFE01E80FFB
:10088000F11DE35AFF4FF0820B8FEA89FB898081CB
:10089000806207C0EE89FF896083E889F9898081D9
:1008A0008064808381E090E0DF91CF911F910F9170
:1008B000FF90EF900895CF93DF93EC01888D88230C
:1008C000C1F0EA89FB89808185FD05C0A889B989C5
:1008D0008C9186FD0EC00FB607FCF5CF808185FF99
:1008E000F2CFA889B9898C9185FFEDCFCE017CDF4D
:1008F000E8CFDF91CF91089580E090E0892B19F047
:100900006ADF811125C080E090E0892B41F080E012
:1009100090E0892B21F00E94000081111CC080E032
:1009200090E0892B41F080E090E0892B21F00E943B
:100930000000811113C080E090E0892BA1F080E0DD
:1009400090E0892B81F00E94000081110AC0089577
:100950000E940000D8CF0E940000E1CF0E9400005A
:10096000EACF0C94000008951F920F920FB60F92D9
:1009700011240BB60F922F933F934F935F936F9376
:100980007F938F939F93AF93BF93EF93FF9382EBEC
:1009900092E02ADFFF91EF91BF91AF919F918F91EC
:1009A0007F916F915F914F913F912F910F900BBE6F
:1009B0000F900FBE0F901F9018951F920F920FB6B9
:1009C0000F9211240BB60F922F938F939F93EF9357
:1009D000FF93E091C202F091C3028081E091C802CE
:1009E000F091C90282FD12C090818091CB028F5F8D
:1009F0008F732091CC02821751F0E091CB02F0E08E
:100A0000EE54FD4F958F8093CB0201C08081FF9102
:100A1000EF919F918F912F910F900BBE0F900FBE72
:100A20000F901F901895CF93DF9390E0FC01E85949
:100A3000FE4F2491FC01EE5DFE4F8491882361F10D
:100A400090E0880F991FFC01EC50FE4FC591D491A6
:100A5000FC01E85FFE4FA591B491611109C09FB7F9
:100A6000F8948881209582238883EC912E230BC0F3
:100A7000623061F49FB7F8943881822F8095832388
:100A80008883EC912E2B2C939FBF06C08FB7F894D0
:100A9000E8812E2B28838FBFDF91CF9108953FB738
:100AA000F8948091B1039091B203A091B303B091F7
:100AB000B40326B5A89B05C02F3F19F00196A11DD0
:100AC000B11D3FBFBA2FA92F982F8827820F911DE4
:100AD000A11DB11DBC01CD0142E0660F771F881F2B
:100AE000991F4A95D1F708958F929F92AF92BF9226
:100AF000CF92DF92EF92FF926B017C01D0DF4B012E
:100B00005C01C114D104E104F104E9F0C8DFDC01A7
:100B1000CB0188199909AA09BB09883E9340A10510
:100B2000B10578F321E0C21AD108E108F10888EE96
:100B3000880E83E0981EA11CB11CC114D104E104ED
:100B4000F10421F7DECFFF90EF90DF90CF90BF90C0
:100B5000AF909F908F9008952FB7F8946091AD0358
:100B60007091AE038091AF039091B0032FBF0895B1
:100B70001F920F920FB60F9211242F933F938F93D2
:100B80009F93AF93BF938091AD039091AE03A091DB
:100B9000AF03B091B0033091AC0323E0230F2D37A6
:100BA00020F40196A11DB11D05C026E8230F029671
:100BB000A11DB11D2093AC038093AD039093AE03B0
:100BC000A093AF03B093B0038091B1039091B203AF
:100BD000A091B303B091B4030196A11DB11D809300
:100BE000B1039093B203A093B303B093B403BF9146
:100BF000AF919F918F913F912F910F900FBE0F90CA
:100C00001F901895CF93DF93EC0188859985009705
:100C100009F051D78E8187FD04C060E0DF91CF914C
:100C200002CFDF91CF910895FC01942F4091990359
:100C300050919A03E417F50750F4422F392F262FCD
:100C4000CF0150E060E070E0532B622B97DC809185
:100C50009F039091A003892B09F0D9CB0895CF92DF
:100C6000DF92EF92FF920F931F932091990330919F
:100C70009A0382179307A8F4062F019510E020E04D
:100C800030E0CC24D02EE12EF22EB8015527442797
:100C90004C295D296E297F29402B512B622B732B08
:100CA0006DDC80919F039091A003892B39F01F91F7
:100CB0000F91FF90EF90DF90CF90A9CB1F910F91F4
:100CC000FF90EF90DF90CF9008951F920F920FB694
:100CD0000F9211248F939F93AF93BF9380916402DF
:100CE00090916502A0916602B09167020196A11DE4
:100CF000B11D8093640290936502A0936602B09345
:100D00006702BF91AF919F918F910F900FBE0F908F
:100D10001F901895CF93DF93CDB7DEB769970FB6C5
:100D2000F894DEBF0FBECDBF789484B5826084BDD9
:100D300084B5816084BD85B5826085BD85B58160DF
:100D400085BD80916E00816080936E00109281005D
:100D50008091810082608093810080918100816018
:100D600080938100809180008160809380008091D9
:100D7000B10084608093B1008091B0008160809365
:100D8000B0008091910082608093910080919100E9
:100D900081608093910080919000816080939000A9
:100DA0008091A10082608093A1008091A100816068
:100DB0008093A1008091A00081608093A000809129
:100DC00021018260809321018091210181608093C3
:100DD00021018091200181608093200180917A001F
:100DE000846080937A0080917A00826080937A0098
:100DF00080917A00816080937A0080917A00806887
:100E000080937A001092C100109293031092940381
:100E10001092950310929603109251031092520370
:100E2000109253031092540397DE6B017C014B0127
:100E30005C0128EB820E2BE0921EA11CB11C8CDE03
:100E40006C157D058E059F0528F086169706A80669
:100E5000B906A8F782EB92E09093920380939103F6
:100E600036DA7ADE60935103709352038093530312
:100E7000909354036AE172E0809191039091920300
:100E80007BDC6ADE6B017C014B015C013AE0830E86
:100E9000911CA11CB11C60DE6C157D058E059F05A3
:100EA00028F086169706A806B906A8F781E0809371
:100EB00065030DDA81B18FEF81B980B38F6080BB9C
:100EC0009A9A8091010183608093010180910701CA
:100ED00081608093070180910A01866080930A01F6
:100EE00080910B018D7F80930B018998809108017F
:100EF0008E7F8093080112981598A29880917B00AC
:100F0000877F80937B0080E480937C0080917A00CF
:100F1000806480937A0080917A0086FDFCCF609196
:100F200078008091790070E0782B072E000C880BF8
:100F3000990B611571058105910509F0A4D61092F0
:100F400080001092810010928200F89480916F00CE
:100F5000816080936F0078941A8218861F86188AA1
:100F6000198A1A8A81E08E878B871C8692E09D877A
:100F700089838FE690E09E838D8308D59A87898741
:100F8000009751F02FE6DC011D922A95E9F785E2E2
:100F900090E09C838B8304C01E821D821C821B8276
:100FA00084E28F838A81882329F061E084E23BDD3B
:100FB00084E2B5D9E6E4F1E0E491F0E0EE0FFF1F42
:100FC000E85FFE4F859194919C8B8B8BECE8F1E070
:100FD000E491ED8B85E1FE013196A7E9B3E0019044
:100FE0000D928A95E1F7CE0101960CDE80919D036A
:100FF00087FD05C061E017DD80919D0390D981E0F8
:10100000809398031EDB00E010E061E070E0C8010F
:1010100026DE2091B0023091B1024091AE02509193
:10102000AF026091AC027091AD02C801FDDD62E3D8
:1010300070E080E090E058DD0F5F1F4F093111052F
:1010400021F700E010E060E070E0C80108DE62E334
:1010500070E080E090E048DD0F5F1F4F0831110520
:1010600091F700E010E061E070E0C801F8DD20E0F9
:1010700030E040E050E06FEF70E0C801D5DD0F5F79
:101080001F4F0931110579F76CEB72E080E090E0B9
:101090002BDD00E010E060E070E0C801E0DD0F5FF4
:1010A0001F4F09311105B9F76CEB72E080E090E059
:1010B0001BDD06E010E061E070E0C801D0DD20E05B
:1010C00030E04FEF50E060E070E0C801ADDD0F5F51
:1010D0001F4F0231110579F76CEB72E080E090E070
:1010E00003DD06E010E060E070E0C801B8DD0F5FEE
:1010F0001F4F02311105B9F76CEB72E080E090E010
:10110000F3DC00E010E07801B2E1EB0EF11C61E0ED
:1011100070E0C701A4DD61E070E0C801A0DD2FEF41
:1011200030E040E050E060E070E0C7017DDD2FEF8F
:1011300030E040E050E060E070E0C80175DD0F5F36
:101140001F4F06301105F9F66CEB72E080E090E07D
:10115000CBDC00E010E060E070E0C80142967FDD8B
:1011600060E070E0C8017BDD0F5F1F4F0C301105A0
:1011700091F76CEB72E080E090E0B6DC0CE010E000
:1011800061E070E0C8016BDD20E030E04FEF50E03F
:101190006FEF70E0C80148DD0F5F1F4F0831110588
:1011A00079F76CEB72E080E090E09EDC0CE010E000
:1011B00060E070E0C80153DD0F5F1F4F083111057B
:1011C000B9F76CEB72E080E090E08EDC00E010E0BC
:1011D00061E070E0C80143DD20E030E040E850E02D
:1011E0006FEF70E0C80120DD0F5F1F4F0C3011055D
:1011F00079F76CEB72E080E090E076DC00E010E0E4
:1012000060E070E0C8012BDD0F5F1F4F0C3011054F
:10121000B9F76CEB72E080E090E066DCEEE6F2E0BD
:101220002E2E82E38E0F11928E13FDCF0BEE1AE05D
:1012300090E4492E92E4592E9FE0692E712C28EEFD
:10124000822E23E0922EA12CB12C86DC672B682BFA
:10125000692B39F481DC623071058105910508F450
:101260000BC17ADC6093A4027093A5028093A6025E
:101270009093A702C090A002D090A102E090A20299
:10128000F090A3026C157D058E059F0540F46093D8
:10129000A0027093A1028093A2029093A302C09037
:1012A000A002D090A102E090A202F090A3029B01C4
:1012B000AC012C193D094E095F0969017A013AEF29
:1012C000C316D104E104F10408F4D6C06093A0026F
:1012D0007093A1028093A2029093A30284EF91E005
:1012E000A0E0B0E080935D0390935E03A0935F0362
:1012F000B093600310926103109262031092630333
:10130000109264038091550390915603A091570366
:10131000B09158038093590390935A03A0935B03B1
:10132000B0935C0319DC609355037093560380936C
:1013300057039093580310DC60935103709352034A
:10134000809353039093540307DC6B017C016CE2A0
:1013500072E080919103909192030EDA2AE041E0CD
:1013600050E060E070E08091910390919203A8D9E1
:1013700063E372E08091910390919203FDD92AE09A
:10138000B701A601809191039091920399D965E3E9
:1013900072E08091910390919203EED98091550370
:1013A00090915603A0915703B0915803B701A6013D
:1013B000481B590B6A0B7B0B2AE08091910390919B
:1013C00092037ED965E372E080919103909192033C
:1013D000D3D94091550350915603609157037091B2
:1013E00058038091590390915A03A0915B03B091E7
:1013F0005C03481B590B6A0B7B0B2AE0809191031D
:10140000909192035DD967E372E08091910390918E
:101410009203B2D9A1DBAB01BC012AE08091910318
:10142000909192034DD9E0909103F090920369E37B
:1014300072E0C70130D969E272E0C7012CD98CDBB8
:101440006B017C019B01AC012E5F3F4F4F4F5F4F03
:101450002E8B3F8B488F598F7FDB6C157D058E055A
:101460009F0508F027C278DB6093550370935603FD
:10147000809357039093580382EB92E0A0D91816FB
:1014800019060CF015C210926402109265021092B7
:10149000660210926702109285001092840031E07B
:1014A00030938100312CE32CF12C82EB92E065D952
:1014B000D701A259BD4F8C93873231F4F701E3591C
:1014C000FD4F90819C938083339461E070E080E0D5
:1014D00090E00ADB82EB92E072D9181619061CF331
:1014E00090E0931508F005C1E92FF0E0E259FD4FB7
:1014F00080818634B9F04CF4823419F1843409F4D3
:1015000069C0873209F0F3C074C0823509F438C06D
:10151000853509F444C08C3409F0E9C0109824E6FC
:1015200030E022C0169824E630E0179AF80131978F
:10153000F1F71798F8013197F1F721503109A9F720
:10154000D6C080910B018B7F80930B0124E630E0A5
:10155000889AF8013197F1F78898F8013197F1F7F7
:1015600021503109A9F7C3C0119AF8013197F1F759
:101570001198F8013197F1F721503109A9F7B7C057
:10158000139824E630E0149AF8013197F1F7149893
:10159000F8013197F1F721503109A9F7A8C08091DE
:1015A00002018D7F8093020124E630E080910201E8
:1015B000816080930201F8013197F1F78091020177
:1015C0008E7F80930201F8013197F1F721503109A4
:1015D00069F78DC08A9824E630E08B9AF80131973C
:1015E000F1F78B98F8013197F1F721503109A9F7FC
:1015F0007EC081818634B9F04CF4823419F1843490
:1016000009F074C08A9A24E630E065C0823509F496
:1016100038C0853509F444C08C3409F067C0109A8D
:1016200024E630E022C0169A24E630E0179AF8014A
:101630003197F1F71798F8013197F1F721503109F7
:10164000A9F754C080910B01846080930B0124E6BC
:1016500030E0889AF8013197F1F78898F8013197CE
:10166000F1F721503109A9F741C0119AF8013197DA
:10167000F1F71198F8013197F1F721503109A9F7E5
:1016800035C0139A24E630E0149AF8013197F1F747
:101690001498F8013197F1F721503109A9F726C0C4
:1016A0008091020182608093020124E630E0809103
:1016B0000201816080930201F8013197F1F7809176
:1016C00002018E7F80930201F8013197F1F72150DA
:1016D000310969F70BC08B9AF8013197F1F78B98B4
:1016E000F8013197F1F721503109A9F79F5F9F5F0A
:1016F000F8CE1092810080918500C0906402D09055
:101700006502E0906602F09067028CE0CC0CDD1C74
:10171000EE1CFF1C8A95D1F7C0926402D09265023C
:10172000E0926602F092670248EEC41643E0D406E7
:10173000E104F10448F410926902109268021092D8
:101740006B0210926A0218C0D701C601885E9340EE
:10175000A109B10988359E43AF40B10590F4C70196
:10176000B601A501940198D230936B0220936A02CE
:10177000709369026093680210926D0210926C027D
:1017800019C0C701B601A301920186D230936D0240
:1017900020936C02A50194017FD230936B022093B9
:1017A0006A02C701B601A501940176D2709369025D
:1017B0006093680265E472E082EB92E00E94BC03F1
:1017C00080916C0290916D020E94A80360E472E027
:1017D00082EB92E00E94BC0380916A0290916B02BE
:1017E0000E94A80362E572E082EB92E00E94BC03D3
:1017F00080916802909169020E94A803EEE6F2E0EF
:101800008E2F8219831510F41192FACF0E942103B2
:10181000E12CF12CC7010C969093AB028093AA02A5
:101820008CE0E816F10494F461E070E0C70117DA87
:101830002091B0023091B1024091AE025091AF02BE
:101840006091AC027091AD02C701EED961E070E029
:101850008091AA029091AB0202DA2091B0023091FD
:10186000B1024091AE025091AF026091AC02709112
:10187000AD028091AA029091AB02D6D960E070E0EF
:10188000C7010497ECD98091AA029091AB0260E065
:1018900070E00497E4D966E470E080E090E024D939
:1018A0009FEFE91AF90AA0E1EA16F10409F0B2CFB4
:1018B00023D8CBCC2E893F89488D598D26173707E1
:1018C0004807590708F0C8CDCECDE2EBF2E013820D
:1018D000128288EE93E0A0E0B0E084839583A68333
:1018E000B7838EE092E09183808385EC90E09587CA
:1018F000848784EC90E09787868780EC90E0918BDA
:10190000808B81EC90E0938B828B82EC90E0958BC6
:10191000848B86EC90E0978B868B118E128E138EC3
:10192000148EEFE4F3E01682178210861186128679
:1019300013861486158616861786108A118A128ACF
:10194000138A148A158AE7E9F3E081E08083118223
:1019500013821282158214829FEF9683178211865A
:1019600010868287138692E094878587168617866D
:10197000108A118A089587E993E044C9EE0FFF1F8A
:10198000881F8BBF0790F691E02D1994CF93DF93BA
:101990008230910510F482E090E0E091B703F0917D
:1019A000B80320E030E0C0E0D0E0309711F1408192
:1019B000518148175907C0F04817590761F48281CF
:1019C0009381209719F09B838A832BC09093B8034F
:1019D0008093B70326C02115310519F0421753072C
:1019E00018F49A01BE01DF01EF010280F381E02DBE
:1019F000DCCF2115310509F1281B390B24303105C5
:101A000090F412968D919C9113976115710521F0B8
:101A1000FB019383828304C09093B8038093B70340
:101A2000FD01329644C0FD01E20FF31F81939193B3
:101A3000225031092D933C933AC02091B503309147
:101A4000B603232B41F4209102023091030230931C
:101A5000B6032093B50320910002309101022115B5
:101A6000310541F42DB73EB7409104025091050273
:101A7000241B350BE091B503F091B603E217F30791
:101A8000A0F42E1B3F0B2817390778F0AC014E5FEE
:101A90005F4F2417350748F04E0F5F1F5093B60372
:101AA0004093B5038193919302C0E0E0F0E0CF0151
:101AB000DF91CF9108950F931F93CF93DF930097FA
:101AC00009F48CC0FC013297138212820091B70393
:101AD0001091B8030115110581F420813181820F25
:101AE000931F2091B5033091B6032817390779F574
:101AF000F093B603E093B50371C0D80140E050E025
:101B0000AE17BF0750F412962D913C911397AD017B
:101B10002115310509F1D901F3CF9D01DA01338394
:101B2000228360817181860F971F8217930769F462
:101B3000EC0128813981260F371F2E5F3F4F3183FB
:101B400020838A819B8193838283452B29F4F093A0
:101B5000B803E093B70342C01396FC93EE93129739
:101B6000ED01499159919E01240F351FE217F307AA
:101B700071F480819181840F951F029611969C9338
:101B80008E938281938113969C938E931297E0E0BB
:101B9000F0E0D80112968D919C911397009719F05F
:101BA000F8018C01F6CF8D919C9198012E5F3F4FEB
:101BB000820F931F2091B5033091B6032817390780
:101BC00069F4309729F41092B8031092B70302C059
:101BD000138212821093B6030093B503DF91CF9165
:101BE0001F910F91089581E090E0F894B2C08F9218
:101BF0009F92AF92BF92CF92DF92EF92FF92CF93DC
:101C0000DF93EC01688179818A819B81611571057F
:101C10008105910521F464E279ED8BE597E02DE1F2
:101C200033EF41E050E05AD049015A019B01AC0129
:101C3000A7EAB1E46FD06B017C01ACEEB4EFA50173
:101C4000940174D0DC01CB018C0D9D1DAE1DBF1D18
:101C5000B7FF03C00197A109B04888839983AA837D
:101C6000BB83BC01CD019F77DF91CF91FF90EF90B7
:101C7000DF90CF90BF90AF909F908F900895B7CF97
:101C800086E092E0B4CF60930602709307028093DF
:101C90000802909309020895A1E21A2EAA1BBB1B09
:101CA000FD010DC0AA1FBB1FEE1FFF1FA217B30728
:101CB000E407F50720F0A21BB30BE40BF50B661F3E
:101CC000771F881F991F1A9469F760957095809502
:101CD00090959B01AC01BD01CF010895052E97FBA6
:101CE00016F400940FD057FD05D0D6DF07FC02D0C4
:101CF00046F408C050954095309521953F4F4F4F81
:101D00005F4F089590958095709561957F4F8F4FA7
:101D10009F4F08950FD0A59F900DB49F900DA49F45
:101D2000800D911D11240895B7FFF4CFF3DF821BBE
:101D3000930B0895A29FB001B39FC001A39F700DA4
:101D4000811D1124911DB29F700D811D1124911DC3
:101D5000089511E0C8E0D1E000E005C0802FFE0149
:101D60000DDE2196011DC930D10780E00807B1F7CB
:041D7000F894FFCF15
:101D74000000B90380000100000000000000150409
:101D84003A01DF03BD03D1035B04564D4450565F53
:101D9400317C315F564D4450560D0A00564D445027
:101DA400455F003A323A007C005F564D445045008E
:101DB4004D696C6C695365636F6E64287329203AAE
:101DC40020004D6963726F5365636F6E64287329D5
:041DD400203A200091
:00000001FF
