:100000002CC100005AC1000058C1000056C10000B8
:1000100054C1000052C1000050C100004EC1000098
:100020004CC100004AC1000048C1000046C10000A8
:1000300044C1000042C1000040C100003EC10000B8
:100040003CC100003AC1000038C1000036C10000C8
:10005000C5C4000032C1000030C1000031C300003F
:100060002CC100005EC2000033C2000026C10000A7
:1000700024C1000022C1000020C100001EC10000F8
:100080001CC100001AC1000018C1000016C1000008
:1000900014C1000012C1000010C100000EC1000018
:1000A0000CC100000AC1000008C1000006C1000028
:1000B00004C1000002C1000000C10000FEC0000039
:1000C000FCC00000FAC00000F8C00000F6C000004C
:1000D000F4C00000F2C00000F0C00000EEC000005C
:1000E000ECC00000060908090A090C090E091009EC
:1000F00012091409160918091A091C094E0E8D0F48
:100100008D0F8D0F8D0F470E8D0F8D0F8D0F8D0F56
:100110008D0F8D0F8D0F540E5E0E8D0F440E8D0FB3
:100120008D0F570E8D0F3F0E8D0F510EE706EA060D
:10013000D906DD06E1062107EE06F206F806FC0602
:10014000000706070A070E072107140718071C07F0
:1001500000002100240027002A002D003000330079
:1001600001010000040107010A010000220025002E
:1001700028002B002E003100340002010000050190
:1001800008010B0105050505070508080808020216
:1001900002020A0A08080404040401010101010121
:1001A00001010303030303030303040707070C0C04
:1001B0000C0C0C0C0C0C02020202060606060606CB
:1001C00006060B0B0B0B0B0B0B0B01021020200870
:1001D00008102040102040800201020108040201A2
:1001E0000102040810204080804020100804020111
:1001F000800402018040201008040201080402016A
:1002000001020408102040800102040810204080F0
:1002100000000A0B02090C0D0E0807030401000080
:1002200000000000000000000000000000000000CE
:10023000000000000000000000000000121110008B
:1002400000000000000000000000000000000000AE
:10025000000000000000940F900F11241FBECFEF8C
:10026000D1E2DEBFCDBF00E00CBF12E0A0E0B2E003
:10027000ECEBF6E200E00BBF02C007900D92AE334C
:10028000B107D9F723E0AEE3B2E001C01D92A43478
:10029000B207E1F711E0CCE2D1E000E006C021971F
:1002A0000109802FFE010E941412CB32D10780E099
:1002B0000807A9F7D6D50C944D13A2CE089580E077
:1002C00090E00895FC01538D448D252F30E0842F5C
:1002D00090E0821B930B541710F0CF96089501976E
:1002E0000895FC01918D828D981761F0828DDF0158
:1002F000A80FB11D5D968C91928D9F5F9F73928F19
:1003000090E008958FEF9FEF0895FC01918D828D0D
:10031000981731F0828DE80FF11D858D90E00895DA
:100320008FEF9FEF0895FC01918D228D892F90E032
:10033000805C9F4F821B91098F73992708958BE4EE
:1003400092E0F1DF21E0892B09F420E0822F08956B
:10035000FC01848DDF01A80FB11DA35ABF4F2C9162
:10036000848D90E001968F739927848FA689B78931
:100370002C93A089B1898C9180648C93938D848D0A
:10038000981306C00288F389E02D80818F7D8083D9
:100390000895EF92FF920F931F93CF93DF93EC0199
:1003A00081E0888F9B8D8C8D981305C0E889F98931
:1003B000808185FD23C0F62E0B8D10E00F5F1F4F4F
:1003C0000F731127E02E8C8DE8120BC00FB607FCBF
:1003D000FACFE889F989808185FFF5CFCE01B8DFB2
:1003E000F2CF8B8DFE01E80FF11DE35AFF4FF08233
:1003F0000B8FEA89FB898081806207C0EE89FF89C3
:100400006083E889F98980818064808381E090E05D
:10041000DF91CF911F910F91FF90EF900895CF93AF
:10042000DF93EC01888D8823C1F0EA89FB89808104
:1004300085FD05C0A889B9898C9186FD0EC00FB6CF
:1004400007FCF5CF808185FFF2CFA889B9898C910F
:1004500085FFEDCFCE017CDFE8CFDF91CF9108950E
:1004600080E090E0892B19F06ADF811125C080E0DF
:1004700090E0892B41F080E090E0892B21F00E94F0
:10048000000081111CC080E090E0892B41F080E0E9
:1004900090E0892B21F00E940000811113C080E0C0
:1004A00090E0892BA1F080E090E0892B81F00E9400
:1004B000000081110AC008950E940000D8CF0E9458
:1004C0000000E1CF0E940000EACF0C9400000895E4
:1004D0001F920F920FB60F9211240BB60F922F930B
:1004E0003F934F935F936F937F938F939F93AF93BC
:1004F000BF93EF93FF938BE492E02ADFFF91EF919C
:10050000BF91AF919F918F917F916F915F914F912B
:100510003F912F910F900BBE0F900FBE0F901F9029
:1005200018951F920F920FB60F9211240BB60F92CF
:100530002F938F939F93EF93FF93E0915B02F09142
:100540005C028081E0916102F091620282FD12C042
:100550009081809164028F5F8F7320916502821772
:1005600051F0E0916402F0E0E55BFD4F958F8093E0
:10057000640201C08081FF91EF919F918F912F9133
:100580000F900BBE0F900FBE0F901F901895CF933A
:10059000DF9390E0FC01E653FE4F2491FC01EC5701
:1005A000FE4F8491882361F190E0880F991FFC0130
:1005B000E05BFE4FC591D491FC01E659FE4FA59139
:1005C000B491611109C09FB7F89488812095822366
:1005D0008883EC912E230BC0623061F49FB7F894AE
:1005E0003881822F809583238883EC912E2B2C9346
:1005F0009FBF06C08FB7F894E8812E2B28838FBF4A
:10060000DF91CF9108953FB7F89480914702909180
:100610004802A0914902B0914A0226B5A89B05C0A4
:100620002F3F19F00196A11DB11D3FBFBA2FA92F71
:10063000982F8827820F911DA11DB11DBC01CD01EE
:1006400042E0660F771F881F991F4A95D1F70895DA
:100650008F929F92AF92BF92CF92DF92EF92FF92D2
:100660006B017C01D0DF4B015C01C114D104E104BA
:10067000F104E9F0C8DFDC01CB0188199909AA0966
:10068000BB09883E9340A105B10578F321E0C21A69
:10069000D108E108F10888EE880E83E0981EA11CBD
:1006A000B11CC114D104E104F10421F7DECFFF90A5
:1006B000EF90DF90CF90BF90AF909F908F90089574
:1006C0001F920F920FB60F9211242F933F938F9387
:1006D0009F93AF93BF938091430290914402A09166
:1006E0004502B09146023091420223E0230F2D379C
:1006F00020F40196A11DB11D05C026E8230F029626
:10070000A11DB11D209342028093430290934402A5
:10071000A0934502B093460280914702909148020F
:10072000A0914902B0914A020196A11DB11D80938A
:10073000470290934802A0934902B0934A02BF91A6
:10074000AF919F918F913F912F910F900FBE0F907E
:100750001F901895CF93DF93EC01888599850097BA
:1007600011F00E94B1128E8187FD04C060E0DF911C
:10077000CF910DCFDF91CF910895169A84E690E046
:100780002BEE3AE0179AF9013197F1F71798F90132
:100790003197F1F70197B1F70895169884E690E044
:1007A0002BEE3AE0179AF9013197F1F71798F90112
:1007B0003197F1F70197B1F70895139A84E690E025
:1007C0002BEE3AE0149AF9013197F1F71498F901F8
:1007D0003197F1F70197B1F70895139884E690E007
:1007E0002BEE3AE0149AF9013197F1F71498F901D8
:1007F0003197F1F70197B1F70895109A84E690E0E8
:100800002BEE3AE0119AF9013197F1F71198F901BD
:100810003197F1F70197B1F70895109884E690E0C9
:100820002BEE3AE0119AF9013197F1F71198F9019D
:100830003197F1F70197B1F708958A9A84E690E02D
:100840002BEE3AE08B9AF9013197F1F78B98F90189
:100850003197F1F70197B1F708958A9884E690E00F
:100860002BEE3AE08B9AF9013197F1F78B98F90169
:100870003197F1F70197B1F7089580910B018460EA
:1008800080930B0184E690E02BEE3AE0889AF90120
:100890003197F1F78898F9013197F1F70197B1F79E
:1008A000089580910B018B7F80930B0184E690E08B
:1008B0002BEE3AE0889AF9013197F1F78898F9011F
:1008C0003197F1F70197B1F70895809102018260A5
:1008D0008093020184E690E04BEE5AE02091020101
:1008E000216020930201FA013197F1F72091020172
:1008F0002E7F20930201FA013197F1F7019771F7EA
:100900000895809102018D7F8093020184E690E03A
:100910004BEE5AE020910201216020930201FA017E
:100920003197F1F7209102012E7F20930201FA0105
:100930003197F1F7019771F70895FC01942F4091D9
:100940002D0350912E03E417F50750F4422F392F51
:10095000262FCF0150E060E070E0532B622B58D17E
:100960008091330390913403892B09F09AC0089544
:10097000CF92DF92EF92FF920F931F9320912D035E
:1009800030912E0382179307A8F4062F019510E0EB
:1009900020E030E0CC24D02EE12EF22EB8015527F5
:1009A00044274C295D296E297F29402B512B622B2E
:1009B000732B2ED18091330390913403892B39F01E
:1009C0001F910F91FF90EF90DF90CF906AC01F9121
:1009D0000F91FF90EF90DF90CF9008951F920F92AC
:1009E0000FB60F9211248F939F93AF93BF93809173
:1009F0003E0290913F02A0914002B09141020196C7
:100A0000A11DB11D80933E0290933F02A09340022E
:100A1000B0934102BF91AF919F918F910F900FBE04
:100A20000F901F901895CF92DF92EF92FF920F9345
:100A30001F93CF93DF936C017A018B01C0E0D0E06C
:100A4000CE15DF0589F0D8016D918D01D601ED91AC
:100A5000FC910190F081E02DC6011995892B11F4CC
:100A60007E0102C02196ECCFC701DF91CF911F918B
:100A70000F91FF90EF90DF90CF900895009761F075
:100A8000FC0101900020E9F73197AF01481B590B99
:100A9000BC018BE492E0C7CF80E090E008950E9413
:100AA00049130F931F93CF93DF93CDB7DEB72997E9
:100AB0000FB6F894DEBF0FBECDBFA5DD00913903A0
:100AC00010913A0320913B0330913C03DC01CB01B0
:100AD000801B910BA20BB30B8C329140A105B10589
:100AE00060F3F89480912F03909130039A83898367
:100AF000E0913303F0913403DF01119680818987FF
:100B000090912B03E0913D03F0913E0380913F03D0
:100B1000992309F42EC09081982B98879081809515
:100B200089238F838F818C8388E08B8358856F81A5
:100B300049853B812C8189819A81508347FD252FEE
:100B40003A952083262F39F0441F00C000006083AF
:100B5000000000C0F2CF38E04D91608300000197A3
:100B600061F7F0933E03E0933D0349873B832C8379
:100B700038C09081982B98879081809589238F83A6
:100B80008F818E8388E08D8358856F8149853D8173
:100B90002E8189819A81508347FD252F00C000C096
:100BA000208300C000C000C000C000C060830000FF
:100BB000262F3A9541F0441F000000C000C000C03D
:100BC00000C000C0E8CF38E04D9100C0608300C095
:100BD000019709F7F0933E03E0933D0349873D8376
:100BE0002E839A83898378940EDD60933903709302
:100BF0003A0380933B0390933C0329960FB6F894F5
:100C0000DEBF0FBECDBFDF91CF911F910F91089531
:100C10008F929F92AF92BF92CF92DF92EF92FF920C
:100C20004B01AA24BB24E82DC52ED62EE72EFF2487
:100C3000FC2D342F20913203222361F0829E40014B
:100C40001124E92DC29E60011124FD2D429FD00187
:100C500011243B2FF0903803E0903503A09133032B
:100C6000B0913403FE1008C0AC01440F551F840F2F
:100C7000951F8A0F9B1F14C0880F991F880F991FFB
:100C80008A0F9B1F472F552766277727DC01AF0D5B
:100C9000B11D222321F0429FA0011124452F4C9326
:100CA00020913503DC01A20FB11DEC932091360396
:100CB000DC01A20FB11DFC9320913703FC01E20F70
:100CC000F11D3083FF90EF90DF90CF90BF90AF90F9
:100CD0009F908F900895CF93DF93D0DEEC018BE34C
:100CE00092E0CCDE8C0F9D1FDF91CF910895CF92C3
:100CF000DF92EF92FF920F931F93CF93DF93CDB7C5
:100D0000DEB7A1970FB6F894DEBF0FBECDBF9C0132
:100D100040E050E019A28E010F5D1F4F8AE0C82EFF
:100D2000D12CE12CF12CCA01B901A70196010E9436
:100D30006110605DF80162938F0121153105410555
:100D4000510589F7CF019ADE8C018BE392E096DEA4
:100D5000800F911FA1960FB6F894DEBF0FBECDBFD6
:100D6000DF91CF911F910F91FF90EF90DF90CF9087
:100D7000089590E0FC01E05FFD4F4491FC01E653D3
:100D8000FE4F2491FC01EC57FE4F9491992309F4F6
:100D900067C0442309F455C050E0FA013197E231AD
:100DA000F10508F04EC08827EA56FF4F8F4F0C948C
:100DB0001412809180008F7707C0809180008F7D12
:100DC00003C080918000877F809380003AC084B503
:100DD0008F7702C084B58F7D84BD33C08091B00011
:100DE0008F7703C08091B0008F7D8093B00029C0C1
:100DF000809190008F7707C0809190008F7D03C015
:100E000080919000877F809390001BC08091A0000C
:100E10008F7707C08091A0008F7D03C08091A000D4
:100E2000877F8093A0000DC0809120018F7707C03D
:100E3000809120018F7D03C080912001877F809366
:100E40002001E92FF0E0EE0FFF1FE659FE4FA591BC
:100E5000B4918FB7F894EC9120952E232C938FBFEB
:100E60000895CF93DF93CDB7DEB766970FB6F894AA
:100E7000DEBF0FBECDBF789484B5826084BD84B5DB
:100E8000816084BD85B5826085BD85B5816085BD85
:100E900080916E00816080936E001092810080913D
:100EA00081008260809381008091810081608093C5
:100EB0008100809180008160809380008091B100EA
:100EC00084608093B1008091B00081608093B00015
:100ED0008091910082608093910080919100816067
:100EE0008093910080919000816080939000809128
:100EF000A10082608093A1008091A1008160809315
:100F0000A1008091A00081608093A00080912101C8
:100F10008260809321018091210181608093210171
:100F20008091200181608093200180917A0084600B
:100F300080937A0080917A00826080937A00809119
:100F40007A00816080937A0080917A008068809333
:100F50007A001092C10081B18FEF81B980B38F60A8
:100F600080BB9A9A809101018360809301018091F6
:100F7000070181608093070180910A018660809358
:100F80000A0180910B018D7F80930B0189988091DC
:100F900008018E7F8093080112981598A29880917D
:100FA0007B00877F80937B0080E480937C0080912E
:100FB0007A00806480937A0080917A0086FDFCCF6D
:100FC000609178008091790070E0782B072E000CFA
:100FD000880B990B611571058105910511F00E942F
:100FE0002C10109280001092810010928200F894D0
:100FF00080916F00816080936F007894E0915B0234
:10100000F0915C0292E09083E0915702F0915802D7
:101010001082E0915902F0915A0280E1808310928F
:101020006302E0915F02F091600286E08083E091CC
:101030005D02F0915E02808180618083E0915D02BB
:10104000F0915E02808188608083E0915D02F09182
:101050005E02808180688083E0915D02F0915E0293
:1010600080818F7D80831A8218861F86188A198A4C
:101070001A8A81E08E878B871C869D8789838FE6FD
:1010800090E09E838D830E941C129A878987009727
:1010900051F02FE6FC0111922A95E9F785E290E0E4
:1010A0009C838B8304C01E821D821C821B8284E26F
:1010B0008F838A81882329F061E084E268DA84E200
:1010C00058DEE8EAF1E0E491F0E0EE0FFF1FE659A8
:1010D000FE4F859194919C8B8B8BEEEEF1E0E49129
:1010E000ED8B85E1FE013196ABE2B3E001900D920C
:1010F0008A95E1F7CE0101962DDB8091310387FDC2
:1011000005C061E044DA8091310333DE81E08093F1
:101110002C038CE192E0DFDD88EF92E0F2E3F80F40
:10112000FE8B37E0232E312C48EE442E43E0542E24
:10113000612C712CE8EFF2E011922E892E13FCCF76
:101140008BE492E0F0D8181619060CF0E6C610925F
:101150002A0300912A0310E08BE492E0C2D8F80140
:10116000E851FD4F808B80912A03E82FF0E0DF01EA
:10117000A851BD4F50969C915097973231F4E95148
:10118000FD4F208950962C93908B8F5F80932A037C
:1011900061E070E080E090E05BDA8BE492E0C3D83D
:1011A00018161906B4F28091F802833509F05FC071
:1011B00050D72FE030E040E050E057D7DC01CB01C2
:1011C0000F96A11DB11D6C01A12CB12CE12CF12CAD
:1011D00040D72BE030E040E050E047D78B016E1560
:1011E0007F0551F4870186E0E816F1041CF00150F8
:1011F000110902C00F5F1F4F0C301105F8F4F80100
:101200008827EE58FF4F8F4F0C941412C6DA1EC079
:1012100048DB1CC002DB1AC0E0DA18C072DB16C063
:101220001CDB14C0AADA0DC028DB0BC0E6DA09C04B
:10123000C4DA07C04ADB05C000DB03C00630110575
:101240002CF0780196E0E91AF10804C07801E6E094
:10125000EE0EF11C6CEB72E080E090E0F9D9FFEF4C
:10126000AF1ABF0AAC14BD040CF4B2CF56C6833417
:1012700091F410923E0210923F021092400210929E
:101280004102109285001092840081E080938100D9
:1012900084E292E07AC0833609F079C0109281002E
:1012A000009185001091840080913E0290913F0250
:1012B000A0914002B0914102BC01CD012CE0660F2B
:1012C000771F881F991F2A95D1F7BDD76B017C0125
:1012D00088EE93E0089FB001099F700D1124610F03
:1012E000711D072E000C880B990BAFD720E030E062
:1012F00040E85DE30E94B1119B01AC01C701B6015A
:1013000012D775D74B015C0160933E0270933F0288
:101310008093400290934102683E23E0720781056A
:10132000910520F46B0100E010E012C0DC01CB015C
:10133000885E9340A109B10988359E43AF40B1054D
:1013400050F4C501B401A3019201BBD689016B0120
:10135000E12CF12C12C0C501B40120E432E44FE0CD
:1013600050E0AFD67901A3019201ABD68901C50146
:10137000B401A3019201A5D66B01C701B8DCC80175
:10138000B6DCC601B4DC80E392E0A5DCC6C58435DA
:1013900009F074C58091F902863609F4C3C04CF493
:1013A0008136B1F0823609F4E7C1873209F0B5C55C
:1013B000FBC38C3609F48AC224F48B3609F44CC47E
:1013C000ACC58E3609F47FC4823709F433C3A5C592
:1013D0008091F6029091F70200E010E081309105D3
:1013E00091F461E070E0C801C3DA20E030E040E051
:1013F00050E06FEF70E0C801A0DA0F5F1F4F0831B7
:10140000110579F78AC58230910591F461E070E0A9
:10141000C801AEDA20E030E04FEF50E060E070E06D
:10142000C8018BDA0F5F1F4F0831110579F775C5B9
:101430008330910591F461E070E0C80199DA2FEFF3
:1014400030E040E050E060E070E0C80176DA0F5F25
:101450001F4F0831110579F760C58430910591F46B
:1014600061E070E0C80184DA20E030E04FEF50E046
:101470006FEF70E0C80161DA0F5F1F4F083111058F
:1014800079F74BC58530910591F461E070E0C801B2
:101490006FDA20E030E040E850E06FEF70E0C80124
:1014A0004CDA0F5F1F4F0831110579F736C58630CA
:1014B000910591F461E070E0C8015ADA2FEF30E055
:1014C00040E050E06FEF70E0C80137DA0F5F1F4F68
:1014D0000831110579F721C5079791F461E070E0B3
:1014E000C80146DA20E830E040E050E06FEF70E0FD
:1014F000C80123DA0F5F1F4F0831110579F70DC5B9
:1015000061E070E0C80134DA2FEF30E04FEF50E0D7
:101510006FEF70E0C80111DA0F5F1F4F083111053E
:1015200079F7FBC48091F6029091F70200E010E099
:101530008130910511F57801F2E1EF0EF11C61E0C7
:1015400070E0C70115DA61E070E0C80111DA20E04F
:1015500030E040E050E06FEF70E0C701EED920E0EE
:1015600030E040E050E06FEF70E0C801E6D90F5F77
:101570001F4F06301105F9F6D0C48230910511F5E0
:10158000780122E1E20EF11C61E070E0C701F0D9C0
:1015900061E070E0C801ECD920E030E04FEF50E0AE
:1015A00060E070E0C701C9D920E030E04FEF50E0C3
:1015B00060E070E0C801C1D90F5F1F4F0630110510
:1015C000F9F6ABC48330910511F5780182E1E80E9C
:1015D000F11C61E070E0C701CBD961E070E0C801A7
:1015E000C7D92FEF30E040E050E060E070E0C70185
:1015F000A4D92FEF30E040E050E060E070E0C80197
:101600009CD90F5F1F4F06301105F9F686C4843050
:10161000910511F5780192E1E90EF11C61E070E0AD
:10162000C701A6D961E070E0C801A2D920E030E08E
:101630004FEF50E06FEF70E0C7017FD920E030E05E
:101640004FEF50E06FEF70E0C80177D90F5F1F4F89
:1016500006301105F9F661C48530910511F5780160
:10166000E2E1EE0EF11C61E070E0C70181D961E0BA
:1016700070E0C8017DD920E030E040E850E06FEF35
:1016800070E0C7015AD920E030E040E850E06FEF49
:1016900070E0C80152D90F5F1F4F06301105F9F6EF
:1016A0003CC48630910511F57801F2E1EF0EF11C92
:1016B00061E070E0C7015CD961E070E0C80158D911
:1016C0002FEF30E040E050E06FEF70E0C70135D918
:1016D0002FEF30E040E050E06FEF70E0C8012DD90F
:1016E0000F5F1F4F06301105F9F617C4079711F564
:1016F000780122E1E20EF11C61E070E0C70138D907
:1017000061E070E0C80134D920E830E040E050E00A
:101710006FEF70E0C70111D920E830E040E050E001
:101720006FEF70E0C80109D90F5F1F4F0630110538
:10173000F9F6F3C3780182E1E80EF11C61E070E094
:10174000C70116D961E070E0C80112D92FEF30E06F
:101750004FEF50E06FEF70E0C701EFD82FEF30E0B0
:101760004FEF50E06FEF70E0C801E7D80F5F1F4FF9
:1017700006301105F9F6D1C38091F6029091F70277
:1017800006E010E08130910591F461E070E0C8015D
:10179000EFD820E030E040E050E06FEF70E0C801AB
:1017A000CCD80F5F1F4F0231110579F7B6C38230D5
:1017B000910591F461E070E0C801DAD820E030E0F2
:1017C0004FEF50E060E070E0C801B7D80F5F1F4FE7
:1017D0000231110579F7A1C38330910591F461E0DD
:1017E00070E0C801C5D82FEF30E040E050E060E085
:1017F00070E0C801A2D80F5F1F4F0231110579F7C1
:101800008CC38430910591F461E070E0C801B0D8D8
:1018100020E030E04FEF50E06FEF70E0C8018DD86E
:101820000F5F1F4F0231110579F777C3853091059E
:1018300091F461E070E0C8019BD820E030E040E81E
:1018400050E06FEF70E0C80178D80F5F1F4F023192
:10185000110579F762C38630910591F461E070E07B
:10186000C80186D82FEF30E040E050E06FEF70E025
:10187000C80163D80F5F1F4F0231110579F74DC3BF
:10188000079791F461E070E0C80172D820E830E079
:1018900040E050E06FEF70E0C8014FD80F5F1F4F7E
:1018A0000231110579F739C361E070E0C80160D8F1
:1018B0002FEF30E04FEF50E06FEF70E0C8013DD800
:1018C0000F5F1F4F0231110579F727C38091F60290
:1018D0009091F70200E010E08130910591F461E011
:1018E00070E0C80145D820E030E040E050E06FEF04
:1018F00070E0C80122D80F5F1F4F0C30110579F737
:101900000CC38230910591F461E070E0C80130D8D9
:1019100020E030E04FEF50E060E070E0C8010DD80B
:101920000F5F1F4F0C30110579F7F7C28330910517
:1019300099F461E070E0C8011BD82FEF30E040E07F
:1019400050E060E070E0C8010E949D040F5F1F4FEF
:101950000C30110571F7E1C28430910599F461E012
:1019600070E0C80105D820E030E04FEF50E06FEFA5
:1019700070E0C8010E949D040F5F1F4F0C301105DD
:1019800071F7CBC285309105A1F461E070E0C80128
:101990000E94B80420E030E040E850E06FEF70E0D3
:1019A000C8010E949D040F5F1F4F0C30110569F79D
:1019B000B4C286309105A1F461E070E0C8010E94D4
:1019C000B8042FEF30E040E050E06FEF70E0C80166
:1019D0000E949D040F5F1F4F0C30110569F79DC2D7
:1019E0000797A1F461E070E0C8010E94B80420E804
:1019F00030E040E050E06FEF70E0C8010E949D04CD
:101A00000F5F1F4F0C30110569F787C261E070E06E
:101A1000C8010E94B8042FEF30E04FEF50E06FEFA5
:101A200070E0C8010E949D040F5F1F4F0C3011052C
:101A300069F773C28091F6029091F7020CE010E012
:101A400081309105A1F461E070E0C8010E94B80402
:101A500020E030E040E050E06FEF70E0C8010E940D
:101A60009D040F5F1F4F0831110569F756C2823080
:101A70009105A1F461E070E0C8010E94B80420E083
:101A800030E04FEF50E060E070E0C8010E949D043C
:101A90000F5F1F4F0831110569F73FC28330910571
:101AA000A1F461E070E0C8010E94B8042FEF30E0BB
:101AB00040E050E060E070E0C8010E949D040F5FCC
:101AC0001F4F0831110569F728C284309105A1F430
:101AD00061E070E0C8010E94B80420E030E04FEF00
:101AE00050E06FEF70E0C8010E949D040F5F1F4F30
:101AF0000831110569F711C285309105A1F461E043
:101B000070E0C8010E94B80420E030E040E850E0F6
:101B10006FEF70E0C8010E949D040F5F1F4F0831F6
:101B2000110569F7FAC186309105A1F461E070E012
:101B3000C8010E94B8042FEF30E040E050E06FEFA2
:101B400070E0C8010E949D040F5F1F4F083111050E
:101B500069F7E3C10797A1F461E070E0C8010E9452
:101B6000B80420E830E040E050E06FEF70E0C801DA
:101B70000E949D040F5F1F4F0831110569F7CDC109
:101B800061E070E0C8010E94B8042FEF30E04FEF31
:101B900050E06FEF70E0C8010E949D040F5F1F4F7F
:101BA0000831110569F7B9C18091FA028636F1F062
:101BB00044F4813671F0823609F0AFC106E010E0DE
:101BC00028C08C3689F1823709F0A7C10CE010E0FB
:101BD00038C000E010E060E070E0C8010E94B80486
:101BE0000F5F1F4F08311105B1F797C100E010E0FA
:101BF00060E070E0C80142960E94B80460E070E0C6
:101C0000C8010E94B8040F5F1F4F0C30110581F707
:101C100084C160E070E0C8010E94B8040F5F1F4FEC
:101C200002311105B1F779C100E010E060E070E029
:101C3000C8010E94B8040F5F1F4F0C301105B1F7A7
:101C40006CC160E070E0C8010E94B8040F5F1F4FD4
:101C500008311105B1F761C1E091FA028E2FEE0F44
:101C6000990BAA0BBB0BFC01E254F109E831F10519
:101C700008F053C18827E258FF4F8F4FD5C3109209
:101C8000F7021092F60249C181E090E002C082E0C2
:101C900090E09093F7028093F6023FC183E090E0DA
:101CA000F8CFE4E0F0E005C085E090E0F2CFE6E0B8
:101CB000F0E0F093F702E093F6022FC13092F702C2
:101CC0002092F6022AC18091FA02833621F08237EF
:101CD00009F45AC022C12091F0023091F1028091A2
:101CE000F4029091F502821B930B9093F50280937E
:101CF000F4028091F2029091F302280F391F309381
:101D0000F1022093F0028F3F91054CF488539F4FCE
:101D10009093F3028093F20200E010E003C0885C2D
:101D20009109F6CF61E070E0C8010E94B8042091EB
:101D3000F4023091F5024091F2025091F302609169
:101D4000F0027091F102C8010E949D046BE470E002
:101D500080E090E00E9428030F5F1F4F08311105BB
:101D600009F700E010E060E070E0C8010E94B804EC
:101D70006BE470E080E090E00E9428030F5F1F4F4B
:101D80000831110581F7C9C02091F0023091F102AC
:101D90008091F4029091F502821B930B9093F502CF
:101DA0008093F4028091F2029091F302280F391F80
:101DB0003093F1022093F0028F3F91054CF4885349
:101DC0009F4F9093F3028093F20200E010E038C03E
:101DD000885C9109F6CF61E070E08091EE0290910D
:101DE000EF020E94B8042091F4023091F502409174
:101DF000F2025091F3026091F0027091F102809131
:101E0000EE029091EF020E949D0460E070E0C80134
:101E100004970E94B8048091EE029091EF0260E076
:101E200070E004970E94B80466E470E080E090E0FF
:101E30000E9428030F5F1F4F0031110509F46DC088
:101E4000C8010C969093EF028093EE020C301105BE
:101E500014F661E070E0C8010E94B8042091F40219
:101E60003091F5024091F2025091F3026091F0023C
:101E70007091F102C8010E949D04ADCF10E08091E5
:101E80002A03181708F049C0E12FF0E0E851FD4F90
:101E90008089863489F03CF4823489F08434C1F03E
:101EA0008732C9F518C0823569F0853571F08C34F8
:101EB00091F50E940D042FC00E94CD032CC00E94FA
:101EC000510429C00E94ED0326C00E94810423C052
:101ED0000E942D0420C08189863489F03CF482342C
:101EE00089F08434B9F40E941D0414C0823569F06D
:101EF000853571F08C3471F40E94FD030BC00E9493
:101F0000BD0308C00E943D0405C00E94DD0302C05D
:101F10000E9465041F5F1F5FB2CF0E9430020AC992
:101F20008BE293E00C94AA03EBE4F2E013821282BA
:101F300088EE93E0A0E0B0E084839583A683B78326
:101F40008EE092E09183808385EC90E09587848792
:101F500084EC90E09787868780EC90E0918B808B73
:101F600081EC90E0938B828B82EC90E0958B848B5C
:101F700086EC90E0978B868B118E128E138E148ECA
:101F8000EBE2F3E081E080831182138212821582FA
:101F900014829FEF9683178211861086828713869C
:101FA00092E09487858716861786108A118AE8EE54
:101FB000F2E0118210821382128215821482089537
:101FC0008F929F92AF92BF92CF92DF92EF92FF9249
:101FD000CF93DF93EC01688179818A819B816115C0
:101FE00071058105910521F464E279ED8BE597E0B7
:101FF0002DE133EF41E050E038D049015A019B0117
:10200000AC01A7EAB1E44DD06B017C01ACEEB4EFBA
:10201000A501940152D0DC01CB018C0D9D1DAE1D9C
:10202000BF1DB7FF03C00197A109B04888839983FA
:10203000AA83BB83BC01CD019F77DF91CF91FF9035
:10204000EF90DF90CF90BF90AF909F908F900895CA
:10205000B7CF80E092E0B4CF6093000270930102AA
:1020600080930202909303020895052E97FB16F4C5
:1020700000940FD057FD05D024D007FC02D046F4C1
:1020800008C050954095309521953F4F4F4F5F4F79
:10209000089590958095709561957F4F8F4F9F4FD4
:1020A000089531D0A59F900DB49F900DA49F800DF1
:1020B000911D11240895B7FFF4CFF3DF821B930B1A
:1020C0000895A1E21A2EAA1BBB1BFD010DC0AA1F79
:1020D000BB1FEE1FFF1FA217B307E407F50720F091
:1020E000A21BB30BE40BF50B661F771F881F991F0C
:1020F0001A9469F760957095809590959B01AC0155
:10210000BD01CF010895A29FB001B39FC001A39F5D
:10211000700D811D1124911DB29F700D811D112420
:10212000911D08955058BB27AA270ED0E0C0D1D0EA
:1021300030F0D6D020F031F49F3F11F41EF4C6C029
:102140000EF4E095E7FBBCC0E92FE2D080F3BA17AC
:10215000620773078407950718F071F49EF5FAC0BB
:102160000EF4E0950B2EBA2FA02D0B01B9019001B2
:102170000C01CA01A0011124FF27591B99F0593FF6
:1021800050F4503E68F11A16F040A22F232F342F3E
:102190004427585FF3CF469537952795A795F0408C
:1021A0005395C9F77EF41F16BA0B620B730B840BA1
:1021B000BAF09150A1F0FF0FBB1F661F771F881F59
:1021C000C2F70EC0BA0F621F731F841F48F48795B1
:1021D00077956795B795F7959E3F08F0B3CF9395A0
:1021E000880F08F09927EE0F97958795089598D056
:1021F00088F09F5790F0B92F9927B751A0F0D1F0F0
:10220000660F771F881F991F1AF0BA95C9F712C079
:10221000B13081F09FD0B1E008959CC0672F782F36
:102220008827B85F39F0B93FCCF3869577956795E5
:10223000B395D9F73EF490958095709561957F4F51
:102240008F4F9F4F0895E89409C097FB3EF49095F7
:102250008095709561957F4F8F4F9F4F9923A9F07F
:10226000F92F96E9BB279395F6958795779567950E
:10227000B795F111F8CFFAF4BB0F11F460FF1BC052
:102280006F5F7F4F8F4F9F4F16C0882311F096E9E5
:1022900011C0772321F09EE8872F762F05C0662393
:1022A00071F096E8862F70E060E02AF09A95660F4C
:1022B000771F881FDAF7880F9695879597F9089505
:1022C00097F99F6780E870E060E008959FEF80ECE9
:1022D000089500240A94161617061806090608958C
:1022E00000240A9412161306140605060895092EF2
:1022F0000394000C11F4882352F0BB0F40F4BF2B61
:1023000011F460FF04C06F5F7F4F8F4F9F4F0895A0
:1023100057FD9058440F551F59F05F3F71F0479596
:10232000880F97FB991F61F09F3F79F0879508957B
:10233000121613061406551FF2CF4695F1DF08C09A
:10234000161617061806991FF1CF869571056105B7
:1023500008940895E894BB2766277727CB0197F95F
:1023600008950BD0C4CFB5DF28F0BADF18F095235D
:1023700009F0A6CFABCF1124EECFCADFA0F3959F13
:10238000D1F3950F50E0551F629FF001729FBB275C
:10239000F00DB11D639FAA27F00DB11DAA1F649F08
:1023A0006627B00DA11D661F829F2227B00DA11DBB
:1023B000621F739FB00DA11D621F839FA00D611D41
:1023C000221F749F3327A00D611D231F849F600D62
:1023D000211D822F762F6A2F11249F5750408AF09B
:1023E000E1F088234AF0EE0FFF1FBB1F661F771F27
:1023F000881F91505040A9F79E3F510570F060CF63
:10240000AACF5F3FECF3983EDCF38695779567950E
:10241000B795F795E7959F5FC1F7FE2B880F911D44
:102420009695879597F90895EE0FFF1F881F8BBF2C
:102430000790F691E02D1994CF93DF9382309105A8
:1024400010F482E090E0E0914203F091430320E039
:1024500030E0C0E0D0E0309711F140815181481761
:102460005907C0F04817590761F48281938120977A
:1024700019F09B838A832BC090934303809342037C
:1024800026C02115310519F04217530718F49A0197
:10249000BE01DF01EF010280F381E02DDCCF2115C9
:1024A000310509F1281B390B2430310590F41296BF
:1024B0008D919C9113976115710521F0FB01938318
:1024C000828304C09093430380934203FD013296BC
:1024D00044C0FD01E20FF31F819391932250310913
:1024E0002D933C933AC02091400330914103232B1C
:1024F00041F420910602309107023093410320936A
:10250000400320910402309105022115310541F468
:102510002DB73EB74091080250910902241B350B9C
:10252000E0914003F0914103E217F307A0F42E1B62
:102530003F0B2817390778F0AC014E5F5F4F241727
:10254000350748F04E0F5F1F5093410340934003FF
:102550008193919302C0E0E0F0E0CF01DF91CF9151
:1025600008950F931F93CF93DF93009709F48CC0C6
:10257000FC013297138212820091420310914303AF
:102580000115110581F420813181820F931F209163
:102590004003309141032817390779F5F09341033F
:1025A000E093400371C0D80140E050E0AE17BF0790
:1025B00050F412962D913C911397AD0121153105E0
:1025C00009F1D901F3CF9D01DA01338322836081C0
:1025D0007181860F971F8217930769F4EC01288198
:1025E0003981260F371F2E5F3F4F318320838A8129
:1025F0009B8193838283452B29F4F0934303E093DB
:10260000420342C01396FC93EE931297ED01499159
:1026100059919E01240F351FE217F30771F4808151
:102620009181840F951F029611969C938E938281BF
:10263000938113969C938E931297E0E0F0E0D8017B
:1026400012968D919C911397009719F0F8018C01C7
:10265000F6CF8D919C9198012E5F3F4F820F931F73
:1026600020914003309141032817390769F43097CE
:1026700029F4109243031092420302C01382128283
:102680001093410300934003DF91CF911F910F916D
:10269000089581E090E0F89400C011E0CCE2D1E030
:1026A00000E005C0802FFE01BFDE2196011DCD3266
:0C26B000D10780E00807B1F7F894FFCFD5
:1026BC000100000000004403800000000000C9017C
:1026CC00130562010F02930171018501456E644986
:1026DC006E69740053544152542054494D45520074
:0E26EC0053544F502054494D4552000D0A00E2
:00000001FF
